:020000040040BA
:1000000050B34220C5014000C1014000C101400081
:10001000C1014000C1014000C101400000000000DA
:10002000000000000000000000000000C1014000CE
:10003000C101400000000000C1014000C1014000BA
:10004000C1014000C1014000C1014000C1014000A8
:10005000C1014000C1014000C1014000C101400098
:10006000C101400000000000C1014000C10140008A
:1000700000000000C1014000C1014000000000007C
:10008000C10140000000000000000000C10140006C
:10009000C101400000000000C1014000C10140005A
:1000A000C1014000C101400000000000000000004C
:1000B00000000000C1014000C1014000C10140003A
:1000C000C1014000C1014000C1014000000000002A
:1000D0000000000000000000000000000000000020
:1000E000C10140000000000000000000C10140000C
:1000F000C1014000000000000000000000000000FE
:100100000000000000000000C1014000C1014000EB
:10011000C1014000000000000000000000000000DD
:10012000C1014000C1014000C1014000C1014000C7
:10013000C1014000C101400000000000C1014000B9
:10014000C1014000C10140000000000000000000AB
:10015000C101400010B5054C237833B9044B13B1ED
:100160000448AFF300800123237010BD3804402001
:1001700000000000902240000C4B43B10C480D4998
:1001800010B5AFF300800C48036823B910BD0A48CE
:10019000036833B97047094B002BF7D0BDE8104016
:1001A0001847064B002BF5D0184700BF0000000091
:1001B000902240003C0440209022400000000000BB
:1001C000FEE7000008B5174B174A9A4210D0174BAC
:1001D000144A9A420CD2013B9B1A23F003030433C6
:1001E0001344114951F8040B42F8040B9A42F9D117
:1001F0000F4B104A9A420AD2013B9B1A23F0030389
:1002000004331344002142F8041B9342FBD10A4AF1
:100210000A4B23F07F039360094B9847094B98479B
:10022000FEE700BF0000402090224000380440203C
:1002300050AD42203804402000ED00E000004000B6
:10024000212140001D1140008368002B40F01B81DC
:1002500010B54368312B00F21181DFE813F0320052
:100260008B000F010F010F010F010F010F010F0193
:100270000F010F010F010F010F010F010F010F01FE
:100280000F010F010F010F010F010F010F010F01EE
:100290000F010F010F010F010F01AB000F010F0143
:1002A0000F010F010F010F010F010F010F010F01CE
:1002B0000F010F010F010F01B500C800D100F700B9
:1002C000030171490B7803F0FD0300226F4C22708B
:1002D0006F4C227043F0010303F0F70362F38203D3
:1002E0000B706C4BD3F8142142F01002C3F81421A8
:1002F000D3F8142142F02002C3F8142103F5B223ED
:100300005A6842F010025A605A6842F020025A605D
:100310001A6F22F010021A675A6F22F010025A6701
:100320001A6F22F020021A675A6F22F020025A67D1
:10033000594B1A78120402F4FE02584B5A6019699C
:1003400045F65D520A431A611A6942F440321A6155
:100350001A6842F020021A601A6842F004021A6019
:100360004F4A136943F480131361B42231214D4B7A
:10037000984710BD444B1B7813F0040F0CD113F0B9
:10038000080F12D0404A137843F001031370012282
:100390002D21444B984710BD3B4A43F00103137095
:1003A00001221E213F4B984710BD012211463D4BB3
:1003B000984710BD344B1A786FF382021A700122ED
:1003C0001146384B984710BD0022374B1A60324B0C
:1003D0001B781B0403F4FE03304A5360536823F474
:1003E0008053536001222E212E4B984710BD284B7D
:1003F0001A782A4B5A6301222F212A4B984710BDA5
:10040000264B1B6A13F0040F11D0274B1B68274A99
:1004100012789A4210DD264AD15C204A516301339A
:10042000214A136001222F211E4B984710BD012243
:100430002F211C4B984710BD184A136843F0020344
:10044000136001223021174B984710BD134B1B6AD4
:1004500013F0010F4FF001020CBF30213121114B7D
:10046000984710BD084A137803F0FE036FF3C303E7
:100470001370012211460B4B984710BD0122002139
:10048000084B984710BD7047CC044020D004402052
:10049000C804402000800840E104402000C0014022
:1004A00000060E40D912400054044020E0044020D1
:1004B000E40440208268002A40F05F832DE9F04F79
:1004C0008FB0049041680E2900F25183DFE811F0EB
:1004D0000F0056006100770087009300B400D6003B
:1004E000F80010013601040331033B0346039D4A23
:1004F000936B23F000439363A2F58062936B43F008
:1005000004039363A2F50072D2F8583143F00F034D
:10051000C2F85831944BD96D94491966944959667B
:100520009449096821F07F4119679349996700212F
:10053000D9665967D967C3F88010C3F88410D2F818
:10054000503143F01003C2F85031D2F8503123F447
:10055000C063C2F85031D2F8503143F00103C2F801
:100560005031864B1960864B196040F6B832012134
:100570000498844B98470FB0BDE8F08F824A936B84
:1005800023F0040393637822022104987D4B98475B
:10059000F1E77E4901238B647B4B5A6842F00802E5
:1005A0005A604FF480620A601A6F42F008021A67BC
:1005B0004FF4167203210498724B9847DBE7694A9F
:1005C000936B43F0004393636C4A53680133536069
:1005D0004FF49662042104986A4B9847CBE7674B27
:1005E0005B68032B4FF00602CCBF05210021049865
:1005F000644B9847BFE7664B1B7813F0010F15D18A
:100600000122644B1A701E22634B1A706821634BDF
:1006100019703C21624B19705D490B7843F0080357
:100620000B7006210498574B9847A4E70122052137
:100630000498544B98479EE7554B1B7813F0010FD5
:1006400016D10122534B1A700222534B1A7080228A
:10065000524B1A703C22524B1A704D4A137843F099
:10066000080313701E2207210498464B984782E71F
:10067000012206210498434B98477CE7444B1B78A2
:1006800013F0010F16D10122424B1A700322424B84
:100690001A700E22414B1A703C22414B1A703C4A90
:1006A000137843F0080313701E2208210498354B79
:1006B000984760E7012207210498324B98475AE790
:1006C00001222E4B9A60374BDB6B13F4804F04D022
:1006D000344BDB6B13F4001F05D001220821049872
:1006E000284B984747E709210498264B984742E74B
:1006F0002C4BDB6B13F4804F1AD11A4A936B43F4E3
:1007000000139363184BDA6D194A5A660122DA61B5
:1007100000221A4BDA60244B03F5807123F8022F74
:100720008B42FBD101220A210498164B984722E7FD
:10073000012209210498134B98471CE70A49496A8A
:1007400011F0010F32D00D4BDA680A4B5B689A4208
:100750004FF001020CBF0B210A210498094B984766
:1007600009E700BF00140E4000800740640F0E40F0
:10077000F4044020000040200328042258044020B4
:1007800034344120D912400000100E4000060E40C3
:10079000CC044020E0044020C8044020E404402071
:1007A000E1044020000E0E4032064020C048C168DF
:1007B0000131C160BF490020C1F88400BFF34F8FF1
:1007C000D1F88010C1F34E37C1F3C9084FEA471E74
:1007D0004FEA887943F6E07CB64E0EEA0C054846AF
:1007E000414645EA0004C6F86C42013900F1404038
:1007F000B1F1FF3FF5D1013FAEF1200EB7F1FF3F60
:10080000EBD1BFF34F8FBFF36F8FAB49C86DAB48D0
:1008100048660120C861A7490020C1F88400BFF3E1
:100820004F8FD1F88010C1F34E37C1F3C9084FEA9A
:10083000471E4FEA887943F6E07C9E4E0EEA0C058F
:100840004846414645EA0004C6F86042013900F1D5
:100850004040B1F1FF3FF5D1013FAEF1200EB7F1BD
:10086000FF3FEBD1BFF34F8FBFF36F8F9449096800
:10087000069100297FF767AF8D49D1F810A0D1F814
:1008800014C0C8680446099002380B90096801F04A
:1008900001010591601E8B4901448B4F07EB8107D5
:1008A0008A4901448A4E06EB81061546DFF824E2A8
:1008B0000A920B9800F178020C9204F178020D92E2
:1008C00066E0BAF1010F07D0BAF1020F0CBF4FEA90
:1008D00049024FEA880274E04FEA880271E0C3459A
:1008E00008D0CB450ED0A34515D0002BB8BF03F5DB
:1008F000B4738BE0A9EB0404C4EB0414A30093FBD2
:10090000F1F3F2E7A4EB0804C4EB0414A30093FB97
:10091000F1F37833E9E7A8EB0908C8EB08184FEAC8
:10092000880393FBF1F3F033DFE70B98684C54F83E
:10093000204004F07F080998654C54F8204004F0EA
:100940007F090C98624C54F8200000F07F00029060
:100950000D9854F8200000F07F00039065E00A9C99
:10096000059A002A00F09280019A42EA414141EA48
:100970000321C7F8E411396841EAC45139600135EF
:1009800007F5F07706F5F076069A954280F28C80AE
:100990004A4A32F915201402A1B2C2F307240C44CA
:1009A000C4F3C428C4F3451904F01F04BAF1000FBE
:1009B00087D14FEA890202EB880202EB44024A44E3
:1009C0009210019294443EF8121001312EF8121048
:1009D0004FEA48086400CB46A145B8BFA346C345CB
:1009E000B8BFC3464946A145A8BF21464145D4BF2B
:1009F000ABEB0101ABEB080104293FF770AFBBF192
:100A00000D0F34BF4FF4C8734FF4D273012DA6DD20
:100A1000099C012C36DD022D87D0DDF80C9008985A
:100A20000390DDF8088007980290D6F8BC4304F0E4
:100A30007F0407941419A4EB0804A4EB0909D6F861
:100A4000C04304F07F04306800F07F08A4EB080482
:100A500009EB44080398029CA0EB040B08EB4B0045
:100A600080EAE07BABEBE07B88EAE879A9EBE87908
:100A70000BEB09047F2CA8BF7F24132C04DC0A9CF9
:100A800008926DE70A9C6BE7089269E7019A42EACF
:100A9000414141EA0321C6F8C413D6F8E02142EAF5
:100AA000C452C6F8E0216AE7014BC3F814C04AE615
:100AB0005804402000ED00E000800740F40440208E
:100AC0000000402088FFFF3F3834412010FFFF3FE7
:100AD0003408402034064020284B1B6813F0010FD7
:100AE0001ED0274A936B43F4800393630122254B66
:100AF0001A60224B1A6801321A605A692249A1FB16
:100B00000212D20A9A611E498A6B22F400128A6389
:100B100000225A610122082104981C4B98472AE5BB
:100B2000174A936B23F4800393630022154B1A60DA
:100B3000DFE74FF48062164B5A6006220D210498BD
:100B4000124B984717E5134A936B43F004039363E2
:100B500001220E2104980D4B98470CE50022074B0B
:100B6000DA6101220E210498084B984703E501221F
:100B700000210498054B9847FDE470475804402035
:100B800000140E4034344120B5814E1BD912400070
:100B900000060E4000100E4008B583684BB943684C
:100BA000012B16D0022B1FD023B1012200211C4B98
:100BB000984708BD1B4A936B23F0010393631A4BBC
:100BC00000221A62DA6141F270720121144B9847D7
:100BD00008BD154B9B68012B4FF001020CBF022191
:100BE00011460F4B984708BD0F4A136AD26902F0AD
:100BF00007029A420B498A6BCCBF42F0010222F0F5
:100C000001028A630133072B06D0074A13620122CF
:100C10000221034B984708BD0022034B1A62F6E7F6
:100C2000D912400000140E40580440202DE9F84F1E
:100C300083684BB94368012B5BD0022B78D02BB172
:100C400001220021954B9847BDE8F88F944BD3F8CB
:100C5000902042F00072C3F890205A6E42F0007269
:100C60005A665A6942F000725A615A6842F000723C
:100C70005A605A6842F080625A601A6F22F000721D
:100C80001A675A6F42F000725A671A6F22F0806238
:100C90001A675A6F42F080625A6703F5C0635122A7
:100CA0001A624FF400625A601A6842F050021A60E9
:100CB00000237C4A13707C4A13707C490A7802F046
:100CC000FA0263F3C3020A70794A1370794A936B8C
:100CD00023F080739363A2F50062D2F8003143F4ED
:100CE0008053C2F80031642201216C4B9847BDE863
:100CF000F88F714BD3F89C20704AC3F8A020704A3B
:100D0000C3F8A4200122C3F8B0206E49C3F8B8107C
:100D10000021C3F8AC10C3F8B410C3F8BC10C3F87A
:100D2000C010C3F8C41002215C4B9847BDE8F88F8F
:100D30005E4B1B7813F0010F45D013F0020F3DD12D
:100D4000614B5B6913F0020F3DD05A4A936B43F03D
:100D500080739363544B1978524B1A7891421AD28C
:100D60004B1CDBB24D1E554C2544561E761A51FACB
:100D700086F6264454494F4C15F8012FCA614A693A
:100D800012F0020F17D0A26B42F08072A2630133FF
:100D9000DBB2B542F0D10023434A1370414A1370CD
:100DA000424A117863F300011170424A936B23F0B9
:100DB0008073936307E03C4A137004E03E4B5B6A28
:100DC00013F0020F1DD0404B5B6913F0400F51D15F
:100DD0003D4B5B6913F0200F4CD1354B1B78334AE8
:100DE0001778C7F3C00CC7F380074FF0000EF0462A
:100DF000F346354D2F4C01210E46F246DFF8CC90DC
:100E00000FE02A4B1A786FF300021A70294A936B8D
:100E100023F080739363BDE8F88F8846B446534649
:100E20008B466A6912F0010F0DD0A26B42F08072FE
:100E3000A263072BF1D8AA6909F803200133DBB2BA
:100E40008E463746ECE7BBF1000F10D1B8F1000F2A
:100E500004D0164B1A786CF3C3021A70BEF1000F5F
:100E600015D0124B1A7867F382021A700FE0104AFD
:100E70001370EBE7144A136843F480731360002285
:100E80000B4B1A70094A137843F0080313700122C0
:100E90000221024B9847BDE8F88F00BFD9124000ED
:100EA00000140E400B61422038604220B0614220A5
:100EB00003614220000E0E40008007403C6042204B
:100EC0001C1A0E4011400118001A0E400461422005
:100ED0002DE9F84F83683BB943683BB1012B5CD0E7
:100EE00001220021814B9847BDE8F88F804BD3F851
:100EF000902042F00102C3F890205A6E42F00102A5
:100F00005A665A6942F001025A615A6842F0010277
:100F10005A605A6842F002025A601A6F22F00102C7
:100F20001A675A6F42F001025A671A6F22F00202E2
:100F30001A675A6F42F002025A676E4AA3F520639D
:100F4000C3F80C216C4B5A6842F400225A604FF4EB
:100F5000F4721A625968694A0A435A6040221A6058
:100F60001A6842F010021A600023654A1370654A3D
:100F7000137065490A7802F0FA0263F3C3020A703B
:100F8000624A1370624A936B23F080739363642206
:100F90000121564B9847BDE8F88F5B4B1B7813F047
:100FA000010F35D0544B5B6913F0020F30D0584A13
:100FB000936B43F080739363524B1978504B1E78B8
:100FC000B14216D24B1CDBB2524A11440136F6B282
:100FD000494C4F4D11F8012BE261626912F0020F8A
:100FE00034D0AA6B42F08072AA630133DBB2B34201
:100FF000F0D10023434A1370414A1370424A1178DA
:1010000063F300011170424A936B23F08073936382
:10101000394B5B6913F0400F48D1374B5B6913F0D4
:10102000200F43D1394B1A78374B1F78C7F3C00CC8
:10103000C7F380074FF0000EF046F3462E4D344CB8
:1010400001210E46F246DFF8D09006E02D4A1370DB
:10105000DEE78846B44652468B466B6913F0010FB3
:101060000DD0A36B43F08073A363072AF1D8AB695B
:1010700009F802300132D2B28E463746ECE7BBF1B6
:10108000000F10D1B8F1000F04D01F4B1A786CF389
:10109000C3021A70BEF1000F22D01B4B1A7867F3FF
:1010A00082021A701CE0194B1A70EBE7124A13689F
:1010B00043F48073136002F53C2202F5006213686A
:1010C00043F0040313600022104B1A700E4A137889
:1010D00043F0080313700E4A936B23F080739363FD
:1010E00001221146014B9847BDE8F88FD912400004
:1010F00000100E400D10001000400240C00800809B
:101100001B614220206142201C614220216142205B
:10111000000E0E400C614220146142202DE9F84F70
:10112000484B9847484B9847484E00233360484DFA
:1011300048492846484CA047306800EB40004749E2
:1011400005EB8000A047306800EB4000444905EB08
:101150008000A047306800EB4000424905EB80006A
:10116000A047306800EB40003F4905EB8000A047F6
:10117000306800EB40003D4905EB8000A047306837
:1011800000EB40003A4905EB8000A047306800EBD7
:101190004000384905EB8000A047374E374F384CA8
:1011A000384D17E0384D394CA847A36B43F0006326
:1011B000A363F9E70C338B4205D09A68002AF9DD66
:1011C000013A9A60F6E7324B98472F4B98472368CD
:1011D000002B16DC336813F4803FF8D0B84723683F
:1011E000012BDFD0012323602B6801332B60174BC9
:1011F00019680029E7DD164B01EB410103EB810182
:10120000DBE7124B1B68002B19DDDFF844904FF031
:101210000008DFF880B0DFF834A007E008F101082B
:1012200009F10C09DAF80030434508DDD9F8083037
:10123000002BF3D15BF8283048469847EEE70023AF
:101240002360C7E7F1124000991240002861422054
:101250002C6142209D144000A51240002D0C40003E
:1012600049024000990B4000D10E4000B5044000F7
:10127000E5144000551C400010E000E099144000C7
:10128000B461422024614220E1124000000E0E4071
:101290009B144000B86142200022014B1A60704745
:1012A000246142200A4B1B680C2B0EDC10B4002278
:1012B000426001248460074C44F823100133044940
:1012C0000B600360104610BC70470120704700BFE0
:1012D00028614220B861422041608260704700006E
:1012E000014A024B1A607047010000A550180E40D9
:1012F000F0B55F4AD2F8143143F48053C2F8143188
:101300004FF4C0625B4B1A6003F500734FF0FF327D
:101310001A60594A1A61C3F8A02003F500736FF0F0
:1013200001021A601A61C3F8A02003F580636FF010
:1013300000721A601A61C3F8A020A3F560631A69ED
:1013400042F480321A614D4AC3F80C210132C3F8CD
:101350000C214B4A1A621A46936E13F0010FFBD010
:10136000484A494B1A621A46936E13F4803FFBD0E9
:10137000464A454B9A621A46936E13F0020FFBD011
:10138000414A136B23F070031363936E13F0080F3D
:10139000FBD03D4A136B23F4407343F48073136313
:1013A000936E13F0080FFBD0374A136B23F003033F
:1013B00043F002031363936E13F0080FFBD0324A1D
:1013C000D2F8003143F08063C2F80031304B46F26E
:1013D000A8125A609A601A6822F480321A601A6859
:1013E00042F001021A60BFF34F8FBFF36F8F03F516
:1013F0004F630021C3F85012BFF34F8FBFF36F8FBD
:101400005A6942F400325A61BFF34F8FBFF36F8FB6
:10141000C3F88410BFF34F8FD3F88070C7F34E35F5
:10142000C7F3C9076E014FEA877C43F6E07E1C468E
:1014300006EA0E0062463B4642EA0001C4F860122A
:10144000013B02F14042B3F1FF3FF5D1013D203EA7
:10145000B5F1FF3FECD1BFF34F8F0E4A536943F410
:1014600080335361BFF34F8FBFF36F8FF0BD00BF69
:1014700000800840000C0E40C7819FFF0A1000103A
:10148000096437000964370100060E400124192061
:1014900010E000E000ED00E07047704708B54368D9
:1014A00033B1012B0FD0002211460C4B984708BDD9
:1014B0000B4A936B43F00063936340F6B73201210C
:1014C000064B984708BD064A936B23F0006393636D
:1014D00040F6B7320021014B984708BDD9124000B1
:1014E000000E0E408368002B40F09E832DE9F04FE4
:1014F00083B042680B2A00F29283DFE812F00C00FE
:101500002800C8000802AF02C4020B036A0390035C
:1015100090037C0386030023A54A1360A54A136049
:10152000A54A1360A5498A6B42F080728A63A1F5CF
:10153000C0618A6B22F080728A63A14A136041F213
:1015400070720A219F4B984703B0BDE8F08F9E4B05
:101550001B78002B33D09D4B1B7813F0080F1CD148
:101560009B4A936B23F0807393639A4B1B78022BF7
:101570000BD0032B0DD0012B03D00022964B1A6009
:1015800010E00122944B1A600CE00322924B1A6087
:1015900008E03322904B1A6004E08C4B1A786FF30A
:1015A000C3021A70894B1A786FF382021A700022F4
:1015B000854B1A70864A936B23F080739363874B35
:1015C0001B7813F0040F5DD013F0080F43D1844B48
:1015D0001B787B4A1371423B102B37D8DFE803F0AE
:1015E0002936113636221636363609363636313633
:1015F0001B0000227B4B1A6001220221714B98478D
:1016000032E0012202216F4B98472DE00122022196
:101610006C4B984728E00122724B1A600221694BFB
:10162000984721E002216F4B19600122654B9847D2
:101630001AE003226B4B1A6001220221614B98478A
:1016400012E0012203215F4B98470DE00122114671
:101650005C4B984708E0614B1A786FF3C3021A702D
:1016600001221146574B98475C4B1A786FF3820260
:101670001A7000225C4B1A70554A936B23F08073EA
:10168000936361E7012211464E4B98475CE7534A4A
:10169000127812F0010F40F035815449FF220A7090
:1016A000474AD2F8009081F801901779442F26D04C
:1016B000502F20D0482F4E4A52F8292014BFC2F391
:1016C000450EC2F3862E494A82F803E0494AD2F811
:1016D00000C0BCF1010F40F30D81454E06EB8906B9
:1016E0001C4601210D46DFF804810CF1FF32009306
:1016F0001346019044E0404A12F829E0E3E73C4AEF
:1017000052F829204FEA126EDDE70A460029B8BFD9
:10171000CA1C9210D1F1000B01F0030A0BF0030B6D
:1017200058BFCBF1000ABAF1010F36D0BAF1020F5F
:1017300064D0BAF1000F08D0C2EB021209EBC2026A
:101740002D4850F82220120E06E0C2EB021209EBDF
:10175000C202294810F82220521072455DD0002C98
:1017600072DD08EB050E803C8EF803408EF80420F5
:101770000235009C013106F5F0769646614569D048
:10178000502FC2D0482F43D0442F0CBF96F8E321EE
:10179000D6F8E02102F07F02DFE7C2EB021209EB8C
:1017A000C202154850F82220C2F30722D4E700BF36
:1017B00044624220E46142203862422000140E401C
:1017C0007C044020D9124000216142201C6142204B
:1017D000000E0E401461422074044020B06142208B
:1017E0000461422068044020036142203C604220A2
:1017F000340840200000402050624220C2EB021218
:1018000009EBC202B64850F82220C2F30742A3E710
:10181000D6F8E021C2F386229FE701348B420BD039
:10182000402CA7D108EB05046FF04000E07084F86D
:1018300004E00235009C9DE708EB050EA4F1800A48
:101840008EF803A0013595E708EB050E8EF803200E
:1018500001358FE70198A34B9D70A34B0022C3F87D
:101860008420BFF34F8FD3F88030C3F34E37C3F3D8
:10187000C90C4FEA471E4FEA8C7943F6E0789A4E3E
:101880000EEA08044A46634642EA0401C6F86C12AE
:10189000013B02F14042B3F1FF3FF5D1013FAEF110
:1018A000200EB7F1FF3FEBD1BFF34F8FBFF36F8F28
:1018B0008E4A8C4BC2F8A030EB1C23F07F43C2F859
:1018C000B0300223D3618A4A137843F003031370C4
:1018D000884A936B43F080739363874A136801339C
:1018E0001360864A1268934206D001220421844B79
:1018F000984729E60125AEE77F4B01229A60002236
:101900001A60F2E7012211467D4B98471CE6784A9F
:10191000127812F0010F40F09C80724AFF21117082
:1019200075490D685570774A1468002C3BDD76497F
:101930006B4E0AE0C2EB021205EBC20216F822203F
:1019400001F8012F0133A3422ED01A46002BB8BF55
:10195000DA1C9210D3F1000E03F003070EF0030E11
:1019600058BFCEF10007012F0BD0022F12D0002F4D
:10197000E0D0C2EB021205EBC20256F82220120E92
:10198000DEE7C2EB021205EBC20256F82220C2F3D8
:101990000722D5E7C2EB021205EBC20256F822205D
:1019A000C2F30742CCE71C464E4B9C704E4B0022C4
:1019B000C3F88420BFF34F8FD3F88030C3F34E3782
:1019C000C3F3C90C4FEA471E4FEA8C7943F6E0781F
:1019D000454E0EEA08054A46634642EA0501C6F846
:1019E0006C12013B02F14042B3F1FF3FF5D1013FE0
:1019F000AEF1200EB7F1FF3FEBD1BFF34F8FBFF336
:101A00006F8F3A4A374BC2F8A030E31C23F07F4374
:101A1000C2F8B0300223D361354A137843F0030390
:101A20001370344A936B43F080739363324A1368A4
:101A300001331360314A1268934204D00122042119
:101A40002F4B984780E52C4B01229A6000221A60A8
:101A5000F4E7012211462A4B984775E5244B1B7881
:101A600013F0010F0AD1244B9B68012B4FF00102A8
:101A70000CBF05211146224B984765E50122042140
:101A80001F4B984760E51A4B1B7813F0040F22D0C8
:101A900013F0080F15D11D4B1A78174B1A7101223C
:101AA0000621174B9847124B1A786FF382021A706F
:101AB0000022174B1A700F4A936B23F080739363C5
:101AC00042E50B4B1A786FF3C3021A7001221146DC
:101AD0000B4B9847E7E701220521094B984733E56F
:101AE000506242203C60422000ED00E00080074050
:101AF000B0614220000E0E407C04402004004020D3
:101B0000D9124000000040203E6042200461422083
:101B100003614220454BFF221A70FE225A700B22AD
:101B20009A70434A5168D970116819719168597156
:101B3000D16899711269DA713E4A51681972116857
:101B4000597291689972D168D97212691A73002218
:101B50005A73394BC3F88420BFF34F8FD3F88030CA
:101B6000C3F34E36C3F3C90E77014FEA8E7843F6BE
:101B7000E07C314D07EA0C044246734644EA020118
:101B8000C5F86C12013B02F14042B3F1FF3FF5D1C1
:101B9000013E203FB6F1FF3FECD1BFF34F8FBFF3C3
:101BA0006F8F264B214AC3F8A0200E22C3F8B02025
:101BB0000222DA61224A137843F003031370214AA8
:101BC000936B43F080739363012207211E4B984768
:101BD000BAE41B4B1B7813F0010F07D100221B4BFB
:101BE0009A6001221146184B9847ADE40122072163
:101BF000154B9847A8E4164A936B23F080739363C0
:101C00003C220B21104B98479EE4114A936B43F002
:101C1000807393633C2201210B4B984794E401228B
:101C20000021094B98478FE4704700BF3C60422079
:101C3000F06142202062422000ED00E00080074079
:101C4000B0614220000E0E40D91240007C044020BA
:101C500000140E408368002B40F047822DE9F04FBE
:101C600093B04268062A00F22082DFE812F00700F3
:101C70001B007500AE01D901F7011402984B1B68D7
:101C8000012B04D006220021964B9847C5E1012183
:101C9000954B1960954B1A68954BDA603C22914B35
:101CA0009847BAE1914A1168914AD26891424ED060
:101CB0008F4AD16000271761012151618D490C685D
:101CC000641094618C49096849101162D4615162B1
:101CD0009462D162894CA16B41F48001A1631763C6
:101CE000874AA2F1FE061C467F21DFF804E24FF08E
:101CF000010C07E000217E4A1163824A16E0013997
:101D0000B2420BD032F9025D032DF8DD0EEB8405F3
:101D100069630134022CEDD06746F0E7002FECD068
:101D2000734A1463E9E701337F2B05D032F9021FB0
:101D30000329F8DD744A136001220221694B984798
:101D40006B4B0022DA631A645A649A6465E10122DB
:101D50001146644B984760E10022654B1A61654B60
:101D60001B681C460E93934240F3A481604B5A6952
:101D700002925D6B9F6BD9690A91596A0C91D3F8F5
:101D80003CA0D3F84090D3F84480D3F848C05E4AD2
:101D90001668996A0391D96A04915C49029A01EB29
:101DA0008201A646002309930893079306930D9397
:101DB0000B930593019300924FF0010B0F9015E0E8
:101DC0009A4409F10109029880440CF1010C0120A8
:101DD0000990CDF820B0CDF81CB0CDF818B0B242C3
:101DE00014D0013301F5F071734517D01C460A6811
:101DF00002F07F02AA42E3D0BA42F0D100980C90E0
:101E00000A9301200D90CDF82CB0E8E7009A0492D7
:101E1000039401220592CDF804B0E2E70F98344A0A
:101E20000E991161019A002A50D1059A12B1304AD7
:101E30000499D1620B9A12B12D4A0A99D1610D9A77
:101E400012B12B4A0C995162069A12B1284AC2F873
:101E50003CA0079A12B1264AC2F84090089A12B1E3
:101E6000234AC2F84480099A12B1214AC2F848C0F4
:101E7000029A02F1010C1E4AC2F814C01E4AD2F89E
:101E800000E0F44526D01A4AD1690C91516A0F91AD
:101E9000D2F83CB0D2F840A0D2F84490D2F84880B2
:101EA000916A0591D26A0692184C04EB8C040021C9
:101EB0000B910A910991089110910D91079104914C
:101EC000CDF80CC001220192119034E0084A039928
:101ED0009162AAE701220321024B98479DE000BFCF
:101EE00060044020D912400074044020580440206F
:101EF0007C044020000040200400402000140E40DC
:101F0000340740203206402008004020340840209A
:101F10008B440AF1010AE14408F1010801200B9009
:101F200001980A9009900890964215D0013104F565
:101F3000F074994219D00091226802F07F02954214
:101F4000E6D09742F0D103980F9000980C900120B2
:101F5000109001980D90E7E7039A0692009A059277
:101F600001220792019A0492E0E711985F4B0E9AC2
:101F70001A61049B2BBB079B13B15C4B069ADA6278
:101F80000D9B13B1594B0C9ADA61109B13B1574B4F
:101F90000F9A5A62089B13B1544BC3F83CB0099B8B
:101FA00013B1524BC3F840A00A9B13B14F4BC3F877
:101FB00044900B9B002B00F08B804C4BC3F8488067
:101FC00086E04A4B059A9A62D5E7484BDD6B1A6C5E
:101FD00095FBF2F59D615C6C9A6C94FBF2F41C62CB
:101FE000434A0521116051609560D4600324146157
:101FF000404A11605160996A9160D96AD1600221AA
:1020000011615B6B3C4A13603C4A12689B1A3C4A64
:102010001360012204213B4B984713B0BDE8F08FB9
:10202000394B1B7813F0010F13D1384B384A5268E3
:102030001A70314A12685A700222364B1A70324AAC
:10204000137843F001031370062205212D4B9847A6
:10205000E3E7012204212B4B9847DEE72A4B1B784C
:1020600013F0010F12D1294B204A91691970126A9D
:102070005A700222274B1A70234A137843F0010347
:102080001370062211461F4B9847C6E7012205210F
:102090001C4B9847C1E7204A936B23F4800393635A
:1020A00001221146174B9847B7E701220021154B33
:1020B0009847B2E70D4A5369029301335361174AB7
:1020C000D2F800E073453FF405AF0022074B1A61D8
:1020D000029B0233054A536173454FF001020CBF66
:1020E00003210221074B984797E770477C04402063
:1020F000F0614220206242200862422070044020A9
:1021000034624220D91240001C6142200C614220FE
:10211000080040201B61422000140E4004004020B3
:1021200070B50F4E0F4D761BB61018BF002405D0AA
:10213000013455F8043B9847A642F9D10A4E0B4D9D
:10214000761B00F093F8B61018BF002406D00134B7
:1021500055F8043B9847A642F9D170BD70BD00BF49
:1021600078224000782240008022400078224000FF
:10217000024B13B1024800F005B8704700000000A0
:1021800091214000002301461A46184600F01AB873
:1021900038B50A4C0A4D641BA4100AD004F18043E0
:1021A000013B05EB8305013C55F804399847002CA9
:1021B000F9D1BDE8384000F063B800BF902240007C
:1021C0008C2240002DE9F047254C2568D5F8484180
:1021D0000646884692469946C4B360681F2817DCB5
:1021E000431C76B104EB80050122C5F888A0D4F821
:1021F000881182401143022EC4F88811C5F8089155
:102200001ED00230636044F820800020BDE8F087D3
:10221000144B03B34FF4C870AFF300800446D0B141
:10222000D5F84831002780E88800C5F8484138468D
:102230000123C4F88871C4F88C71002EE1D0D1E775
:10224000D4F88C110A43C4F88C21DAE705F5A6749A
:10225000C5F84841C1E74FF0FF30BDE8F08700BF47
:10226000682240000000000010004020F8B500BFC8
:10227000F8BC08BC9E4670477121400079014000BF
:10228000F8B500BFF8BC08BC9E4670475501400039
:10229000A0000000780000007F00000001000000A6
:1022A00000000000FC02402064034020CC034020DA
:1022B000000000000000000000000000000000001E
:1022C000000000000000000000000000000000000E
:1022D00000000000000000000000000000000000FE
:1022E00000000000000000000000000000000000EE
:1022F00000000000000000000000000000000000DE
:1023000000000000000000000000000000000000CD
:1023100000000000000000000000000000000000BD
:1023200000000000000000000000000000000000AD
:10233000000000000000000000000000000000009D
:10234000000000000000000001000000000000008C
:102350000E33CDAB34126DE6ECDE05000B00000051
:10236000000000000000000000000000000000006D
:10237000000000000000000000000000000000005D
:10238000000000000000000000000000000000004D
:10239000000000000000000000000000000000003D
:0400000500400000B7
:00000001FF
