:020000040040BA
:1000000020B94220D9124000D5124000D51240003C
:10001000D5124000D5124000D5124000000000006B
:10002000000000000000000000000000D5124000A9
:10003000D512400000000000D5124000D51240004B
:10004000D5124000D5124000D5124000D512400014
:10005000D5124000D5124000D5124000D512400004
:10006000D512400000000000D5124000D51240001B
:1000700000000000D5124000D51240000000000032
:10008000D51240000000000000000000D512400022
:10009000D512400000000000D5124000D5124000EB
:1000A000D5124000D5124000000000000000000002
:1000B00000000000D5124000D5124000D5124000CB
:1000C000D5124000D5124000D512400000000000BB
:1000D0000000000000000000000000000000000020
:1000E000D51240000000000000000000D5124000C2
:1000F000D5124000000000000000000000000000D9
:100100000000000000000000D5124000D5124000A1
:10011000D5124000000000000000000000000000B8
:10012000D5124000D5124000D5124000D512400033
:10013000D5124000D512400000000000D51240004A
:10014000D5124000D5124000000000000000000061
:10015000D512400010B5054C237833B9044B13B1C8
:100160000448AFF300800123237010BD40044020F9
:1001700000000000F03340000C4B43B10C480D4927
:1001800010B5AFF300800C48036823B910BD0A48CE
:10019000036833B97047094B002BF7D0BDE8104016
:1001A0001847064B002BF5D0184700BF0000000091
:1001B000F033400044044020F033400000000000D1
:1001C0008368002B40F01B8110B54368312B00F28F
:1001D0001181DFE813F032008B000F010F010F01D6
:1001E0000F010F010F010F010F010F010F010F018F
:1001F0000F010F010F010F010F010F010F010F017F
:100200000F010F010F010F010F010F010F010F016E
:100210000F01AB000F010F010F010F010F010F01C3
:100220000F010F010F010F010F010F010F010F014E
:10023000B500C800D100F700030171490B7803F045
:10024000FD0300226F4C22706F4C227043F00103BB
:1002500003F0F70362F382030B706C4BD3F81421A5
:1002600042F01002C3F81421D3F8142142F0200206
:10027000C3F8142103F5B2235A6842F010025A6001
:100280005A6842F020025A601A6F22F010021A6770
:100290005A6F22F010025A671A6F22F020021A6772
:1002A0005A6F22F020025A67594B1A78120402F44E
:1002B000FE02584B5A60196945F65D520A431A61AD
:1002C0001A6942F440321A611A6842F020021A6038
:1002D0001A6842F004021A604F4A136943F480130B
:1002E0001361B42231214D4B984710BD444B1B780C
:1002F00013F0040F0CD113F0080F12D0404A1378FA
:1003000043F00103137001222D21444B984710BD87
:100310003B4A43F00103137001221E213F4B9847D3
:1003200010BD012211463D4B984710BD344B1A7841
:100330006FF382021A7001221146384B984710BDA4
:100340000022374B1A60324B1B781B0403F4FE0368
:10035000304A5360536823F48053536001222E21A6
:100360002E4B984710BD284B1A782A4B5A6301220E
:100370002F212A4B984710BD264B1B6A13F0040F00
:1003800011D0274B1B68274A12789A4210DD264A63
:10039000D15C204A51630133214A136001222F218D
:1003A0001E4B984710BD01222F211C4B984710BDB2
:1003B000184A136843F00203136001223021174BDF
:1003C000984710BD134B1B6A13F0010F4FF0010249
:1003D0000CBF30213121114B984710BD084A1378CA
:1003E00003F0FE036FF3C3031370012211460B4B9E
:1003F000984710BD01220021084B984710BD704757
:10040000980A40209C0A4020940A4020008008401E
:10041000AD0A402000C0014000060E40C910400057
:100420005C044020AC0A4020B00A40208268002AC8
:1004300040F059832DE9F04F8FB0049041680E29A8
:1004400000F24B83DFE811F00F0056005C007200F1
:1004500082008E00AF00D100F3000B013101FE02DB
:100460002B03350340039A4A936B23F000439363B5
:10047000A2F58062936B43F004039363A2F50072CC
:10048000D2F8583143F00F03C2F85831914BD96D6F
:1004900091491966914959669149096821F07F414E
:1004A0001967904999670021D9665967D967C3F8D8
:1004B0008010C3F88410D2F8503143F01003C2F812
:1004C0005031D2F8503123F4C063C2F85031D2F821
:1004D000503143F00103C2F85031834B1960834B14
:1004E000196040F6B83201210498814B98470FB04B
:1004F000BDE8F08F7822022104987D4B9847F6E7FB
:100500007C4984238B647C4B5A6842F008025A6011
:100510004FF480620A601A6F42F008021A674FF4C3
:10052000167203210498724B9847E0E7684A936B70
:1005300043F0004393636C4A5368013353604FF4B4
:100540009662042104986A4B9847D0E7664B5B6833
:10055000032B4FF00602CCBF052100210498644B09
:100560009847C4E7654B1B7813F0010F15D10122A2
:10057000634B1A701E22634B1A706821624B19700C
:100580003C21624B19705D490B7843F008030B70F6
:1005900006210498564B9847A9E7012205210498A3
:1005A000534B9847A3E7554B1B7813F0010F16D117
:1005B0000122534B1A700222524B1A700022524BE6
:1005C0001A703C22514B1A704C4A137843F00803BE
:1005D00013701E2207210498454B984787E7012294
:1005E00006210498424B984781E7444B1B7813F04F
:1005F000010F16D10122424B1A700322414B1A708F
:100600000E22414B1A703C22404B1A703B4A137821
:1006100043F0080313701E2208210498344B9847B6
:1006200065E7012207210498314B98475FE70122D3
:100630002D4B9A60364BDB6B13F4804F04D0344B58
:10064000DB6B13F4001F05D0012208210498284B0E
:1006500098474CE709210498254B984747E72C4BCE
:10066000DB6B13F4804F1AD1194A936B43F40013D8
:100670009363184BDA6D194A5A660122DA61002237
:10068000194BDA60234B03F5807123F8022F8B425C
:10069000FBD101220A210498154B984727E7012234
:1006A00009210498124B984721E70A49496A11F039
:1006B000010F31D00C4BDA68094B5B689A424FF05E
:1006C00001020CBF0B210A210498094B98470EE741
:1006D00000140E4000800740640F0E40C00A402006
:1006E000000040200328042260044020003A4120FA
:1006F000C910400000060E4000100E40980A40202D
:10070000AC0A4020940A4020B00A4020AD0A4020A4
:10071000000E0E40FE0B4020C048C1680131C16090
:10072000BF490020C1F88400BFF34F8FD1F880107B
:10073000C1F34E37C1F3C9084FEA471E4FEA887923
:1007400043F6E07CB64E0EEA0C054846414645EAC3
:100750000004C6F86C42013900F14040B1F1FF3F9E
:10076000F5D1013FAEF1200EB7F1FF3FEBD1BFF362
:100770004F8FBFF36F8FAB49C86DAB484866012000
:10078000C861A7490020C1F88400BFF34F8FD1F89A
:100790008010C1F34E37C1F3C9084FEA471E4FEA34
:1007A000887943F6E07C9E4E0EEA0C0548464146A9
:1007B00045EA0004C6F86042013900F14040B1F159
:1007C000FF3FF5D1013FAEF1200EB7F1FF3FEBD176
:1007D000BFF34F8FBFF36F8F9449096806910029CB
:1007E0007FF768AF8D49D1F810A0D1F814C0C86860
:1007F0000446099002380B90096801F00101059147
:10080000601E8B4901448B4F07EB81078A490144E5
:100810008A4E06EB81061546DFF824E20A920B9811
:1008200000F178020C9204F178020D9266E0BAF1C0
:10083000010F07D0BAF1020F0CBF4FEA49024FEA8D
:10084000880274E04FEA880271E0C34508D0CB45C6
:100850000ED0A34515D0002BB8BF03F5B4738BE0C1
:10086000A9EB0404C4EB0414A30093FBF1F3F2E737
:10087000A4EB0804C4EB0414A30093FBF1F3783356
:10088000E9E7A8EB0908C8EB08184FEA880393FBCF
:10089000F1F3F033DFE70B98684C54F8204004F094
:1008A0007F080998654C54F8204004F07F090C98A3
:1008B000624C54F8200000F07F0002900D9854F82C
:1008C000200000F07F00039065E00A9C059A002A52
:1008D00000F09280019A42EA414141EA0321C7F8BF
:1008E000E411396841EAC4513960013507F5F07700
:1008F00006F5F076069A954280F28C804A4A32F9E3
:1009000015201402A1B2C2F307240C44C4F3C42876
:10091000C4F3451904F01F04BAF1000F87D14FEA60
:10092000890202EB880202EB44024A4492100192CF
:1009300094443EF8121001312EF812104FEA480884
:100940006400CB46A145B8BFA346C345B8BFC34664
:100950004946A145A8BF21464145D4BFABEB0101A3
:10096000ABEB080104293FF770AFBBF10D0F34BFAB
:100970004FF4C8734FF4D273012DA6DD099C012CEE
:1009800036DD022D87D0DDF80C9008980390DDF855
:10099000088007980290D6F8BC4304F07F040794BF
:1009A0001419A4EB0804A4EB0909D6F8C04304F019
:1009B0007F04306800F07F08A4EB080409EB4408CA
:1009C0000398029CA0EB040B08EB4B0080EAE07B51
:1009D000ABEBE07B88EAE879A9EBE8790BEB09045B
:1009E0007F2CA8BF7F24132C04DC0A9C08926DE79F
:1009F0000A9C6BE7089269E7019A42EA414141EAA1
:100A00000321C6F8C413D6F8E02142EAC452C6F85E
:100A1000E0216AE7014BC3F814C04BE660044020B4
:100A200000ED00E000800740C00A402000004020A8
:100A300088FFFF3F043A412010FFFF3F000E402097
:100A4000000C4020284B1B6813F0010F1ED0274AD2
:100A5000936B43F4800393630122254B1A60224B6E
:100A60001A6801321A605A692249A1FB0212D20A9D
:100A70009A611E498A6B22F400128A6300225A612D
:100A80000122082104981C4B984730E5174A936BC4
:100A900023F4800393630022154B1A60DFE74FF4C1
:100AA0008062164B5A6006220D210498124B98471B
:100AB0001DE5134A936B43F00403936301220E2157
:100AC00004980D4B984712E50022074BDA6101228A
:100AD0000E210498084B984709E50122002104984B
:100AE000054B984703E570476004402000140E4012
:100AF000003A4120B5814E1BC910400000060E404F
:100B000000100E4008B583684BB94368012B16D01E
:100B1000022B1FD023B1012200211C4B984708BD96
:100B20001B4A936B23F0010393631A4B00221A6252
:100B3000DA6141F270720121144B984708BD154BE0
:100B40009B68012B4FF001020CBF022111460F4B95
:100B5000984708BD0F4A136AD26902F007029A4209
:100B60000B498A6BCCBF42F0010222F001028A637A
:100B70000133072B06D0074A136201220221034BDF
:100B8000984708BD0022034B1A62F6E7C9104000DF
:100B900000140E40600440202DE9F84F83684BB9E3
:100BA0004368012B5BD0022B78D02BB101220021AE
:100BB000954B9847BDE8F88F944BD3F8902042F0BE
:100BC0000072C3F890205A6E42F000725A665A6959
:100BD00042F000725A615A6842F000725A605A68D4
:100BE00042F080625A601A6F22F000721A675A6FE0
:100BF00042F000725A671A6F22F080621A675A6FC9
:100C000042F080625A6703F5C06351221A624FF4C2
:100C100000625A601A6842F050021A6000237C4A4F
:100C200013707C4A13707C490A7802F0FA0263F36D
:100C3000C3020A70794A1370794A936B23F0807368
:100C40009363A2F50062D2F8003143F48053C2F8F6
:100C50000031642201216C4B9847BDE8F88F714B3D
:100C6000D3F89C20704AC3F8A020704AC3F8A4208F
:100C70000122C3F8B0206E49C3F8B8100021C3F8B0
:100C8000AC10C3F8B410C3F8BC10C3F8C010C3F85C
:100C9000C41002215C4B9847BDE8F88F5E4B1B786F
:100CA00013F0010F45D013F0020F3DD1614B5B698A
:100CB00013F0020F3DD05A4A936B43F08073936355
:100CC000544B1978524B1A7891421AD24B1CDBB212
:100CD0004D1E554C2544561E761A51FA86F626446A
:100CE00054494F4C15F8012FCA614A6912F0020F9E
:100CF00017D0A26B42F08072A2630133DBB2B5421F
:100D0000F0D10023434A1370414A1370424A1178CC
:100D100063F300011170424A936B23F08073936375
:100D200007E03C4A137004E03E4B5B6A13F0020F8D
:100D30001DD0404B5B6913F0400F51D13D4B5B69B7
:100D400013F0200F4CD1354B1B78334A1778C7F37B
:100D5000C00CC7F380074FF0000EF046F346354D48
:100D60002F4C01210E46F246DFF8CC900FE02A4BC3
:100D70001A786FF300021A70294A936B23F080737C
:100D80009363BDE8F88F8846B44653468B466A693C
:100D900012F0010F0DD0A26B42F08072A263072BFC
:100DA000F1D8AA6909F803200133DBB28E46374631
:100DB000ECE7BBF1000F10D1B8F1000F04D0164BD7
:100DC0001A786CF3C3021A70BEF1000F15D0124BE3
:100DD0001A7867F382021A700FE0104A1370EBE77B
:100DE000144A136843F48073136000220B4B1A708B
:100DF000094A137843F00803137001220221024BC1
:100E00009847BDE8F88F00BFC910400000140E409D
:100E1000D7664220046642207C674220CF6642208B
:100E2000000E0E4000800740086642201C1A0E404B
:100E300011400118001A0E40D06642202DE9F84FEB
:100E400083683BB943683BB1012B5CD00122002190
:100E5000814B9847BDE8F88F804BD3F8902042F043
:100E60000102C3F890205A6E42F001025A665A6994
:100E700042F001025A615A6842F001025A605A680F
:100E800042F002025A601A6F22F001021A675A6F8A
:100E900042F001025A671A6F22F002021A675A6F73
:100EA00042F002025A676E4AA3F52063C3F80C2190
:100EB0006C4B5A6842F400225A6040F245121A62A2
:100EC0005968694A0A435A6040221A601A6842F017
:100ED00010021A600023654A1370654A1370654951
:100EE0000A7802F0FA0263F3C3020A70624A1370CE
:100EF000624A936B23F08073936364220121564B03
:100F00009847BDE8F88F5B4B1B7813F0010F35D085
:100F1000544B5B6913F0020F30D0584A936B43F087
:100F200080739363524B1978504B1E78B14216D29E
:100F30004B1CDBB2524A11440136F6B2494C4F4DBC
:100F400011F8012BE261626912F0020F34D0AA6B32
:100F500042F08072AA630133DBB2B342F0D10023C6
:100F6000434A1370414A1370424A117863F30001F7
:100F70001170424A936B23F080739363394B5B6922
:100F800013F0400F48D1374B5B6913F0200F43D16A
:100F9000394B1A78374B1F78C7F3C00CC7F380075B
:100FA0004FF0000EF046F3462E4D344C01210E4614
:100FB000F246DFF8D09006E02D4A1370DEE788464F
:100FC000B44652468B466B6913F0010F0DD0A36BEC
:100FD00043F08073A363072AF1D8AB6909F80230A4
:100FE0000132D2B28E463746ECE7BBF1000F10D18A
:100FF000B8F1000F04D01F4B1A786CF3C3021A70BB
:10100000BEF1000F22D01B4B1A7867F382021A70D0
:101010001CE0194B1A70EBE7124A136843F4807313
:10102000136002F53C2202F50062136843F00403EA
:1010300013600022104B1A700E4A137843F0080315
:1010400013700E4A936B23F0807393630122114651
:10105000014B9847BDE8F88FC910400000100E40C2
:101060000D10001000400240C0080080E7664220DA
:10107000EC664220E8664220ED664220000E0E40FB
:10108000D8664220E06642200022014B1A60704779
:10109000F06642200A4B1B680C2B0EDC10B40022B9
:1010A000426001248460074C44F823100133044952
:1010B0000B600360104610BC70470120704700BFF2
:1010C000F4664220846742204160826070470000DD
:1010D000014A024B1A607047010000A550180E40EB
:1010E000F0B55F4AD2F8143143F48053C2F814319A
:1010F0004FF4C0625B4B1A6003F500734FF0FF3290
:101100001A60594A1A61C3F8A02003F500736FF002
:1011100001021A601A61C3F8A02003F580636FF022
:1011200000721A601A61C3F8A020A3F560631A69FF
:1011300042F480321A614D4AC3F80C210132C3F8DF
:101140000C214B4A1A621A46936E13F0010FFBD022
:10115000484A494B1A621A46936E13F4803FFBD0FB
:10116000464A454B9A621A46936E13F0020FFBD023
:10117000414A136B23F070031363936E13F0080F4F
:10118000FBD03D4A136B23F4407343F48073136325
:10119000936E13F0080FFBD0374A136B23F0030351
:1011A00043F002031363936E13F0080FFBD0324A2F
:1011B000D2F8003143F08063C2F80031304B46F280
:1011C000A8125A609A601A6822F480321A601A686B
:1011D00042F001021A60BFF34F8FBFF36F8F03F528
:1011E0004F630021C3F85012BFF34F8FBFF36F8FCF
:1011F0005A6942F400325A61BFF34F8FBFF36F8FC9
:10120000C3F88410BFF34F8FD3F88070C7F34E3507
:10121000C7F3C9076E014FEA877C43F6E07E1C46A0
:1012200006EA0E0062463B4642EA0001C4F860123C
:10123000013B02F14042B3F1FF3FF5D1013D203EB9
:10124000B5F1FF3FECD1BFF34F8F0E4A536943F422
:1012500080335361BFF34F8FBFF36F8FF0BD00BF7B
:1012600000800840000C0E40C7819FFF0A1000104C
:10127000096437000964370100060E400124192073
:1012800010E000E000ED00E07047704708B54368EB
:1012900033B1012B0FD0002211460C4B984708BDEB
:1012A0000B4A936B43F00063936340F6B73201211E
:1012B000064B984708BD064A936B23F0006393637F
:1012C00040F6B7320021014B984708BDC9104000D5
:1012D000000E0E40FEE7000008B5174B174A9A4271
:1012E00010D0174B144A9A420CD2013B9B1A23F0A0
:1012F000030304331344114951F8040B42F8040B5F
:101300009A42F9D10F4B104A9A420AD2013B9B1ADA
:1013100023F0030304331344002142F8041B9342D7
:10132000FBD10A4A0A4B23F07F039360094B98478D
:10133000094B9847FEE700BF00004020F033400013
:101340004004402020B342204004402000ED00E053
:1013500000004000813240005D1340002DE9F84F4D
:10136000484B9847484B9847484E00233360484DB8
:1013700048492846484CA047306800EB40004749A0
:1013800005EB8000A047306800EB4000444905EBC6
:101390008000A047306800EB4000424905EB800028
:1013A000A047306800EB40003F4905EB8000A047B4
:1013B000306800EB40003D4905EB8000A0473068F5
:1013C00000EB40003A4905EB8000A047306800EB95
:1013D0004000384905EB8000A047374E374F384C66
:1013E000384D17E0384D394CA847A36B43F00063E4
:1013F000A363F9E70C338B4205D09A68002AF9DD24
:10140000013A9A60F6E7324B98472F4B984723688A
:10141000002B16DC336813F4803FF8D0B8472368FC
:10142000012BDFD0012323602B6801332B60174B86
:1014300019680029E7DD164B01EB410103EB81013F
:10144000DBE7124B1B68002B19DDDFF844904FF0EF
:101450000008DFF880B0DFF834A007E008F10108E9
:1014600009F10C09DAF80030434508DDD9F80830F5
:10147000002BF3D15BF8283048469847EEE700236D
:101480002360C7E7E110400089104000F466422065
:10149000F86642208D12400095104000990B4000E4
:1014A000C1014000050B40003D0E40002D044000EE
:1014B000711540008D30400010E000E089124000BE
:1014C00080674220F0664220D1104000000E0E409E
:1014D0008B1240008467422030B403460028B8BF16
:1014E000C31C9B10444200F0030004F0030458BFE7
:1014F000604201281ED002282AD068B11B4D180175
:10150000C41A01EBC40455F8243023F07F4303EBE5
:10151000026245F824200BE0144D1801C41A01EBB7
:10152000C40455F8243023F0FF031A4445F824205E
:1015300030BC70470D4D1801C41A01EBC40455F8B6
:10154000243023F47F4303EB022245F82420EFE705
:10155000064D1801C41A01EBC40455F8243023F4D5
:101560007F0303EB024245F82420E1E72068422094
:101570008368002B40F000842DE9F04F87B042686B
:101580000C2A00F2F483DFE812F00D002A001401A7
:1015900050020F0324035103B703F203F203C903FC
:1015A000D303DE0300239D4A13609D4A13609D4AC6
:1015B00013609D498A6B42F080728A63A1F5C06115
:1015C0008A6B22F080728A63984A1360536042F2F9
:1015D00028320A21964B984707B0BDE8F08F954A0C
:1015E0001278002A78D09449097811F0080F61D157
:1015F0008E494D68D1F80880D1F80CA00C6901948F
:101600004C690594896903914FF0000BCDF810B037
:10161000CDF808B0D946CDF800B05F46DFF83CC23F
:101620004FF0010E764607E0A2461D46009610E0F8
:101630000391CDF810E07746D2B1013AD2B21CF84E
:1016400002100C0901F00F010135022DECD0A0466B
:10165000B1463746022C04D0032C05D0012CEBD127
:10166000E6E70591F346E6E70191CDF808E0E2E709
:10167000DFB9009B13B16D4BC3F80CA0B9F1000F9B
:1016800002D06A4BC3F80880029B13B1674B019AE2
:101690001A61049B13B1654B039A9A61BBF1000F69
:1016A00010D0624B059A5A610CE0624B1A705F4B86
:1016B0005D60DEE7604B1A786FF3C3021A70002298
:1016C0005C4B1A705C4B1A786FF382021A705B4A9B
:1016D000936B23F080739363594B1B7813F0040FC3
:1016E00062D013F0080F48D1564B1B784F4A13773E
:1016F000423B102B3CD8DFE803F02E3B163B3B2748
:101700001B3B3B3B093B3B3B363B200000224E4B07
:101710001A604A4A936B43F08003936301220221CB
:10172000434B984732E001220221414B98472DE07C
:10173000012202213E4B984728E00122424B1A60C9
:1017400002213B4B984721E002213F4B19600122C7
:10175000374B98471AE003223B4B1A6001220221C3
:10176000334B984712E001220321314B98470DE09B
:10177000012211462E4B984708E0314B1A786FF33F
:10178000C3021A7001221146294B98472C4B1A7834
:101790006FF382021A7000222C4B1A70274A936B47
:1017A00023F08073936317E701221146204B98477B
:1017B00012E7234A127812F0010F40F031812449D8
:1017C000FF220A70194AD2F8009081F80190177F21
:1017D000442F49D0502F43D0482F1E4A52F8292079
:1017E00014BFC2F3450EC2F3862E194A82F803E0F5
:1017F000194AD2F800C0BCF1010F40F30981154E1F
:1018000006EB89061C4601210D46DFF844800CF1E9
:10181000FF3200931346019067E000BF1468422036
:10182000B06742200868422000140E408404402023
:10183000C9104000ED664220E8664220000E0E40CE
:101840007C674220D066422070044020CF66422050
:1018500008664220000E402000004020E066422042
:10186000C54A12F829E0C0E7C44A52F829204FEAD5
:10187000126EBAE70A460029B8BFCA1C9210D1F10D
:10188000000B01F0030A0BF0030B58BFCBF1000A69
:10189000BAF1010F36D0BAF1020F3DD0BAF1000F04
:1018A00008D0C2EB021209EBC202B34850F8222062
:1018B000120E06E0C2EB021209EBC202AE4810F8AB
:1018C00022205210724536D0002C4BDD08EB050E5D
:1018D000803C8EF803408EF804200235009C0131D4
:1018E00006F5F0769646614542D0502FC2D0482F7B
:1018F0001CD0442F0CBF96F8E321D6F8E02102F06B
:101900007F02DFE7C2EB021209EBC2029A4850F8ED
:101910002220C2F30722D4E7C2EB021209EBC20273
:10192000954850F82220C2F30742CAE7D6F8E021D2
:10193000C2F38622C6E701348B420BD0402CCED1B5
:1019400008EB05046FF04000E07084F804E0023515
:10195000009CC4E708EB050EA4F1800A8EF803A0F2
:101960000135BCE708EB050E8EF803200135B6E71C
:101970000198834B9D70834B0022C3F88420BFF3F2
:101980004F8FD3F88030C3F34E37C3F3C90C4FEAFF
:10199000471E4FEA8C7943F6E0787A4E0EEA080447
:1019A0004A46634644EA0201C6F86C12013B02F162
:1019B0004042B3F1FF3FF5D1013FAEF1200EB7F148
:1019C000FF3FEBD1BFF34F8FBFF36F8F6E4A6C4B6E
:1019D000C2F8A030EB1C23F07F43C2F8B0300223E2
:1019E000D3616A4A137843F003031370684A936B18
:1019F00043F080739363674A136801331360664A48
:101A00001268934206D001220421644B9847E3E513
:101A10000125AEE75F4B01221A6200221A60F2E74D
:101A2000012211465D4B9847D6E5584A127812F0CC
:101A3000010F40F09C80524AFF21117055490D68FA
:101A40005570574A1468002C3BDD56494A4E0AE04F
:101A5000C2EB021205EBC20216F8222001F8012F98
:101A60000133A3422ED01A46002BB8BFDA1C9210C5
:101A7000D3F1000E03F003070EF0030E58BFCEF1B2
:101A80000007012F0BD0022F12D0002FE0D0C2EBA5
:101A9000021205EBC20256F82220120EDEE7C2EB5C
:101AA000021205EBC20256F82220C2F30722D5E744
:101AB000C2EB021205EBC20256F82220C2F3074223
:101AC000CCE71C462E4B9C702E4B0022C3F8842082
:101AD000BFF34F8FD3F88030C3F34E37C3F3C90C35
:101AE0004FEA471E4FEA8C7943F6E078254E0EEA1E
:101AF00008054A46634645EA0201C6F86C12013BF6
:101B000002F14042B3F1FF3FF5D1013FAEF1200EAB
:101B1000B7F1FF3FEBD1BFF34F8FBFF36F8F1A4A7F
:101B2000174BC2F8A030E31C23F07F43C2F8B0305B
:101B30000223D361154A137843F003031370144A48
:101B4000936B43F080739363124A136801331360FD
:101B5000114A1268934204D0012204210F4B984786
:101B60003AE50C4B01221A6200221A60F4E70122C6
:101B700011460A4B98472FE520684220000E40206E
:101B80000866422000ED00E0008007407C674220AC
:101B9000000E0E408404402004004020C910400084
:101BA000000040200A664220744B1B7813F0010F9E
:101BB0000AD1734B1B6A012B4FF001020CBF0521A8
:101BC0001146704B984707E5012204216D4B984759
:101BD00002E56A4B1B7813F0040F22D013F0080FB4
:101BE00015D1694B1A78664B1A7701220621654B8D
:101BF0009847624B1A786FF382021A700022634B87
:101C00001A70634A936B23F080739363E4E45B4B35
:101C10001A786FF3C3021A7001221146594B984784
:101C2000E7E701220521574B9847D5E4594BFF229E
:101C30001A70FE225A700D229A70574A5168D97054
:101C40001168197191685971D16899711269DA71C5
:101C5000524A516819721168597291689972D16823
:101C6000D97212691A734E4A12685A73444A9168BB
:101C70009973D268DA734B4B0022C3F88420BFF308
:101C80004F8FD3F88030C3F34E36C3F3C90E7701BC
:101C90004FEA8E7843F6E07C424D07EA0C04424658
:101CA000734644EA0201C5F86C12013B02F140425E
:101CB000B3F1FF3FF5D1013E203FB6F1FF3FECD13C
:101CC000BFF34F8FBFF36F8F374B324AC3F8A0205B
:101CD0001022C3F8B0200222DA61284A137843F0B8
:101CE000030313702A4A936B43F0807393630122BA
:101CF0000721244B98476FE4204B1B7813F0010F0A
:101D000007D100221E4B1A62012211461D4B984733
:101D100062E4012207211B4B98475DE4234A936B41
:101D200023F08073936306220B21164B984753E4EC
:101D30001E4A936B43F0807393634FF416720C2129
:101D4000104B984748E41A4A137803F0F7036FF3EF
:101D5000820313700022174B1A700D4A936B23F005
:101D60008073936306220121064B984734E40122D5
:101D70000021044B98472FE4704700BF7C67422046
:101D800084044020C9104000D0664220CF66422023
:101D9000000E0E4008664220BC674220F0674220D9
:101DA000D867422000ED00E00080074000140E409C
:101DB000E8664220ED664220BB4A1368013B13608F
:101DC000002B40F038822DE9F04F87B0B74A526AB5
:101DD000082A00F22982DFE812F009006F002702CA
:101DE0008C0030012702CB01EA011E02AF4B3522E5
:101DF0009A624F20D8621221196309225A6347243C
:101E00009C66D86619675A675924C3F8A840C3F876
:101E1000AC00C3F8B010C3F8B4202D21996358204A
:101E2000D863172119645A6444249C67D867C3F89F
:101E30008010C3F884205B24C3F8B840C3F8BC000A
:101E4000C3F8C010C3F8C420272199646120D86466
:101E50001B2119655A654224C3F88840C3F88C00D9
:101E6000C3F89010C3F894205D24C3F8C840C3F8A9
:101E7000CC00C3F8D010C3F8D420202199656A2083
:101E8000D86519665A664024C3F89840C3F89C0088
:101E9000C3F8A010C3F8A4206024C3F8D840C3F846
:101EA000DC00C3F8E010C3F8E42001225A627E4B44
:101EB0001A6007B0BDE8F08F01217D4B19607B4BA4
:101EC0007C4A1268C3F8E8207F22C3F8EC20002285
:101ED000C3F8F0204E20C3F8F4003520C3F8F80012
:101EE000C3F8FC20C3F8002103225A626E4B19602C
:101EF000DFE76E4AD2F8FC300493D2F80011059166
:101F000001EB830302EB0313D3F82C90996A084684
:101F10000091596B49440C4601911B6B02931E18AA
:101F2000C2F8F490A14550DA634B1F68D2F8E8E09C
:101F3000D2F8EC80D2F80441D2F8F0B0C0EB001A2D
:101F400009EBCA0A4FEA8A0A002213465B4DDFF802
:101F500070C10121039127E052F80C3003F07F009B
:101F6000704523F0FF0328BF434442F80C3004447B
:101F7000013102F5F0728E420BD0012FECD0535993
:101F800003F07F00704523F0FF0328BF4344535103
:101F9000EDE7029B9B440122039B09F101090AF131
:101FA000040A0198484506D00099B14201DA524628
:101FB000E3E70099F1E7B3B912B13C4BC3F8F0B0D5
:101FC0003A4BC3F8F810C3F8F490049B0133374A36
:101FD000C2F8FC30032B0AD00322344B5A62012290
:101FE000314B1A6065E7314BC3F80441E4E7002345
:101FF000C2F8FC30059B0133C2F80031042B06D037
:1020000003222A4B5A620122274B1A6051E71346DA
:102010000022C3F80021D3F80411D3F8F000B1FB7B
:10202000F0F1C3F8E810C3F80421C3F8F02004224B
:102030005A6201221C4B1A603BE71C4BD3F8FCB0E0
:10204000D3F800211446019202EB8B0203EB02113C
:10205000D1F82CE0D1F82890486B0EEB000A086B01
:10206000484403EB82020021C2F80811C3F8F4E0EF
:10207000D64555DA104B1D680C4BD3F8EC60C9EB14
:10208000091C0EEBCC0C4FEA8C0C4B468145B8BFBB
:1020900003460093094F04EB8B04044A02EB8404CB
:1020A000DFF81C8031E000BF08004020840440209D
:1020B0007C04402078044020003A4120000E40205B
:1020C000043A412052F8081001F07F01B14204D2D5
:1020D000D4F808110131C4F80811013302F5F07287
:1020E00098420CD0012DEDD0D15901F07F01B142C1
:1020F000F3D2D4F808110131C4F80811EDE70EF15C
:10210000010E0CF1040CF24504D08145F7DA624669
:102110004B46E7E7484B009AC3F8F820C3F8F4E0D1
:102120000BF10103444AC2F8FC30032B06D0042211
:10213000414B5A620122414B1A60BAE60023C2F8B1
:10214000FC30019B0133C2F80031042B06D004227D
:10215000394B5A620122394B1A60AAE61346002213
:10216000C3F8002106225A620122344B1A60A0E60D
:10217000314AD2F810210B2AA8BF04232E4AD2F8E4
:1021800020210A2AC8BF43F002032B4AD2F830218B
:102190000A2AC8BF43F00103294A5370022313706F
:1021A0000722254B5A620622244B1A6081E6224AF6
:1021B000D2F80C210B2AB4BF1A4604221E49D1F8CA
:1021C0001C110A29C8BF42F002021B49D1F82C1188
:1021D0000A29C8BF42F0010219498A70164AD2F88A
:1021E00008210B2AA8BF0423134AD2F818210A2A6F
:1021F000C8BF43F00203104AD2F828210A2AC8BFF8
:1022000043F001030E4AD37008220B4B5A62062298
:102210000A4B1A604DE6084A0023C2F83831012300
:102220005362064A136044E60022034B5A620122BD
:10223000024B1A603DE670478404402008004020AD
:10224000D8664220BE4A5368013B5360002B40F0E1
:10225000BA842DE9F04F83B0BA4BD3F83C31072B49
:1022600000F28584DFE813F0080011005F00B3017D
:102270009D0346045D0478040123B24AC2F83C3150
:10228000AF4A536003B0BDE8F08FAE4A0123C2F8F5
:10229000403102F5A07302F56F72002143F8041F6C
:1022A0009342FBD1A74A02F5707302F29C520021BF
:1022B00043F8041F9342FBD1A24B1B69022B1ED093
:1022C000032B26D0012B09D09E4B4FF4A042C3F81C
:1022D000A4254FF47052C3F8A82508E0994B4FF499
:1022E000B432C3F8A425A2F5A852C3F8A825022247
:1022F000944BC3F83C210122914B5A60C2E7914BA9
:102300004FF4DE42C3F8A4254FF4B442C3F8A82525
:10231000EDE78C4B4FF46642C3F8A4254FF45142CD
:10232000C3F8A825E3E70122864BC3F8AC25864B0A
:102330001E68731E934240F32384844B1C68814BB8
:10234000D3F840E1D3F8A455D3F8A875CEEB0E131B
:102350005B0104337E4818447E4A134406F1FF387B
:102360000122DFF8F89119E08446016801EA090AC0
:10237000AA4505D2BA4503D941F00041016008E001
:1023800021F00041CCF8001003E021F00041CCF82E
:10239000001001320430043342450DD0012CE3D04B
:1023A0009C46196801EA090AAA45EED2BA45ECD959
:1023B00041F000411960ECE7624BC3F8AC250EF127
:1023C000010365490968A1F1020A53450CD0C3EB2A
:1023D00003135B0104335E4903EB010C5D490B44BD
:1023E0000120DFF8789127E0564B0222C3F8402104
:1023F0000322C3F83C210122514B5A6042E7E046D8
:10240000DCF8001001EA090B5D4506D95F4504D2EE
:1024100041F00041CCF8001008E021F00041C8F87C
:10242000001003E021F00041C8F8001001300CF169
:10243000040C043382420DD0012CE0D09846196878
:1024400001EA090B5D45EDD95F45EBD241F0004152
:102450001960EBE73B4BC3F8AC050EF10202924565
:1024600013D0384B39490F68D3F8A455D3F8A88551
:10247000C2EB02125201111D354C0C44354B19446C
:1024800006F1FF390123354E24E02E4B0222C3F81A
:1024900040210322C3F83C210122294B5A60F1E676
:1024A000A446206800EA060BAB4505D2C34503D914
:1024B00040F00040206008E020F00040CCF8000030
:1024C00003E020F00040CCF8000001330434043174
:1024D0004B450DD0012FE3D08C46086800EA060B6F
:1024E000AB45EED2C345ECD940F000400860ECE7C4
:1024F0001449C1F8AC350EF103018A4509D002F543
:10250000F272134C144413490A440120DFF84CC002
:1025100032E00C4B0222C3F840210322C3F83C21D5
:102520000122074B5A60ADE62646216801EA0C09F4
:102530004D4515D9C84513D241F00041216016E040
:10254000080040208404402004004020003A41203C
:10255000043A4120000E40200000402000FF01000E
:1025600021F00041316002E021F000413160013092
:102570000434043283420DD0012FD5D016461168A1
:1025800001EA0C094D45EFD9C845EDD241F00041B3
:102590001160ECE7CA4BC3F8AC050EF10403C84A5E
:1025A000C2F84031534507D00222C54BC3F83C2145
:1025B0000122C44B5A6065E613460222C3F840214B
:1025C0000322C3F83C210122BE4B5A605AE6BC4BA1
:1025D0000022C3F8B0250222C3F8AC25BA4B1B6811
:1025E000023B934240F3D680DFF8F0924FF00108AF
:1025F00003271446DFF8E8A2A9F57375B34E3BE054
:10260000D5F84031B24A1801C11A04EBC10152F8A1
:102610002110A0EB030E08EBCE0E52F82EC003F1F2
:10262000010ECEEB0E1E04EBCE0E52F82EE0C01AB9
:1026300007EBC00052F82000013BC3EB031304EB8F
:10264000C30352F823200023C5F8B43599425EDB5A
:1026500000222146D5F840019E4B98470134C5F829
:10266000AC45013709F1040908F10108964B1B68D4
:10267000023BA34240F38E80DAF80030012BBFD03A
:10268000D5F840311901CA1A04EBC20256F82220CB
:10269000C81A08EBC00056F820E0581CC0EB001028
:1026A00004EBC00056F82000C91A07EBC10156F828
:1026B0002110013BC3EB031304EBC30356F823C003
:1026C0000023C5F8B4359A42C2DA02F000420EF097
:1026D000004E724543D000F00040824243D001F0EA
:1026E00000418A4245D00CF0004C624547D0D5F8F5
:1026F000B435032B49DDD9F800300133C9F8003077
:10270000D5F8B0350133C5F8B035FF22A1E701F0A7
:1027100000410CF0004C614511D00EF0004E7145A7
:1027200011D000F00040814213D002F000429142EB
:10273000DDD1D5F8B4350133C5F8B435D7E7012379
:10274000C5F8B435E9E7D5F8B4350133C5F8B43583
:10275000E7E7D5F8B4350133C5F8B435E5E701232B
:10276000C5F8B435B7E7D5F8B4350133C5F8B43595
:10277000B5E7D5F8B4350133C5F8B435B3E7D5F8C6
:10278000B4350133C5F8B435B1E7002BD4BF00220E
:1027900046225EE74A4BD3F840211046019203EBF4
:1027A0008202D3F8B015C2F84411421C0092C3F85B
:1027B0004021494B1B68033B9A4222D0404B0022E8
:1027C000C3F8B0250222C3F8AC253F4B1B68023B7F
:1027D000934240F3CC80009BC3EB03167601351D7A
:1027E0003B4B05EB0308A6F5EC7606EB0309374BEC
:1027F0001D441E441446DFF8E8A0314F07F5717BF5
:102800002BE004222E4BC3F83C2101222D4B5A60B1
:1028100038E5D8F80430D8F800E0D9F8C003D8F883
:102820000810D9F800204FF0000CC7F8B4C5634574
:1028300058DB002221460098264B98470134C7F800
:10284000AC4508F1040809F10409043504361E4BAF
:102850001B68023BA34240F38A80DAF80030012B68
:10286000D7D06B68D5F800E0D6F8C003A968326805
:102870004FF0000CC7F8B4C56345DADA03F0004343
:102880000EF0004E734556D000F00040834257D002
:1028900001F000418B4259D002F0004293425BD0DC
:1028A000D7F8B435032B5DDD5BF8243001334BF8EA
:1028B0002430D7F8B0350133C7F8B035FF22B9E777
:1028C000840440200800402004004020000E4020E6
:1028D000043A4120D9144000000040205008402014
:1028E000003A412003F000430EF0004E734511D032
:1028F00000F00040834212D001F000418B4214D01E
:1029000002F000429342CBD1D7F8B4350133C7F877
:10291000B435C5E74FF0010EC7F8B4E5E8E7D7F8DE
:10292000B4050130C7F8B405E6E7D7F8B4150131AE
:10293000C7F8B415E4E74FF0010EC7F8B4E5A3E714
:10294000D7F8B4050130C7F8B405A1E7D7F8B41536
:102950000131C7F8B4159FE7D7F8B4350133C7F88C
:10296000B4359DE7002BD4BF0022462262E7964A89
:10297000009B02EB8303D2F8B015C3F84411019B0E
:102980000233C2F84031914A1268033A93420CBFB5
:10299000042203228C4BC3F83C2101228C4B5A6049
:1029A00070E4894B0222C3F8B8254FF0FF32C3F818
:1029B000BC25864B1C68A31E012B1ADD85491C46CD
:1029C000002596462E46022001231F469C4602E023
:1029D0000133A34208D051F8042F9042F8DA9E4602
:1029E00010463D466646F3E7D6B915B1764BC3F8B7
:1029F000BCE5754B0222C3F8C0254FF0FF32C3F887
:102A0000C425754B1C68A31E012B43DD73491C466E
:102A1000002516462F46022001239E469C4606E0CE
:102A2000694BC3F8B805E0E70133A34208D051F879
:102A3000042F9042F8DA1E46104675466746F3E7C3
:102A400027BB3DB3604BC3F8C465D3F8BC15002960
:102A500020DD002E1EDDD3F8C025D3F8B8359A420C
:102A6000B8BF1A4604245E4B1C605E4B1A605A6065
:102A70009960DE60544B1B69022B33D0032B35D099
:102A8000012B11D00422574B1A6110E04E4BC3F8B2
:102A9000C005D6E70122524B1A60524B00221A6041
:102AA0005A609A60DA60E5E701224E4B1A614E4B9C
:102AB00003221A605A604F229A603B22DA60022297
:102AC0001A6149F2F063494AD358C3F34723484A8D
:102AD000136005223C4BC3F83C2101223C4B5A6059
:102AE000FFF7D0BB02223F4B1A61E0E703223D4BC8
:102AF0001A61DCE703223F4B1A70334BD3F8C02531
:102B0000D3F8B8359A4209DD3A4B5A7006232E4A5B
:102B1000C2F83C312E4A5360FFF7B4BB354A5370BC
:102B2000F4E7294BD3F8BC35002B10DD264AD2F848
:102B3000C425002A0BDD2F498B70CA700722224B57
:102B4000C3F83C210622224B5A60FFF79BBB294B5E
:102B5000FF229A70DA70F1E71B4A0023C2F838317D
:102B60000123C2F83C311A4A5360FFF78BBB0022A5
:102B7000154BC3F83C210122154B5A60FFF782BB6D
:102B8000114BD3F840E10EF10103104A1268A2F193
:102B9000020A53453FF428AC01220B4BC3F8AC2585
:102BA0000EF102039A453FF470AC0122064BC3F8C4
:102BB000AC250EF103039A453FF4ABAC0122024B66
:102BC000C3F8AC25E9E470478404402000004020AD
:102BD00008004020C805402004004020480840204C
:102BE0007C044020BC674220F0674220000E402059
:102BF000D8674220D8664220A54A9368013B93607B
:102C0000002B40F02F822DE9F04F93B0A14AD2F86B
:102C1000C825052A00F2FE81DFE812F00600120046
:102C20006C00AB01DF01F20101239B4A1360994A5A
:102C3000C2F8C8350622964B9A6013B0BDE8F08FF3
:102C4000944A0026C2F8CC650121C2F8D0159349F8
:102C500008684010C2F8D405914909684910C2F8C3
:102C6000DC15C2F8D805C2F8E015C2F8E405C2F8D0
:102C7000E815C2F8EC658B4AA2F1FE0518467F21E3
:102C8000844F4FF0010E08E00021824AC2F8EC1593
:102C9000854A18E00139AA420CD032F9024D032CC2
:102CA000F8DD07EB8004C4F8F01501300228EBD002
:102CB0007646EFE7002EEBD0764AC2F8EC05E7E760
:102CC00001337F2B05D032F9021F0329F8DD704A4A
:102CD000D360704B0222C3F8C82501216C4A916071
:102CE0000022C3F8F825C3F8FC25C3F80026C3F872
:102CF0000426A2E70022674BC3F8CC25674B1B686C
:102D000018460F93934240F38D81624BD3F8D0E580
:102D1000D3F8F045D3F8F465D3F8D8250B92D3F85F
:102D2000E0250D92D3F8F8B5D3F8FCA5D3F80096BA
:102D3000D3F80486564AD568D3F8E4250492D3F82C
:102D4000E8350593594901EB8E01844600230A9327
:102D50000993089307930E930C9306930393CDF86E
:102D600008E00127019611E09B440AF1010AF144B1
:102D700008F1010801260A96099708970797AA42C1
:102D800014D0013301F5F071634516D018460A6876
:102D900002F07F02A242E7D0019EB242EFD1029E32
:102DA0000D960B9301260E960C97E8E7029A059272
:102DB0000490012206920397E3E7019E354A0F999A
:102DC000C2F8CC15039A002A55D1069A1AB1314A95
:102DD0000599C2F8E8150C9A1AB12E4A0B99C2F857
:102DE000D8150E9A1AB12B4A0D99C2F8E015079A18
:102DF00012B1284AC2F8F8B5089A12B1254AC2F8A9
:102E0000FCA5099A12B1234AC2F800960A9A12B197
:102E1000204AC2F804860EF1010C1E4AC2F8D0C541
:102E20001F4A1768BC452BD01A4AD2F8D8150C9106
:102E3000D2F8E0150E91D2F8F8B5D2F8FCA5D2F888
:102E40000096D2F80486D2F8E4150591D2F8E82568
:102E50000692164800EB8C0000210B910A91099113
:102E6000089110910D9107910491CDF80CC00122A9
:102E7000029211972FE0074A0499C2F8E415A4E7DB
:102E80000322044BC3F8C8250122014B9A60D4E603
:102E900008004020840440207C04402000004020A2
:102EA00004004020000D4020FE0B4020000E40207A
:102EB0008B440AF1010AE14408F1010801270B974C
:102EC000029F0A9709970897954215D0013100F59E
:102ED000F070994219D00191026802F07F02944289
:102EE000E6D09642F0D1039F0E97019F0C970127E1
:102EF0001097029F0D97E7E7039A0692019A0592B1
:102F000001220792029A0492E0E7119F564B0F9A12
:102F1000C3F8CC25049B3BBB079B1BB1524B069AC5
:102F2000C3F8E8250D9B1BB14F4B0C9AC3F8D8256D
:102F3000109B1BB14C4B0E9AC3F8E025089B13B1B4
:102F4000494BC3F8F8B5099B13B1474BC3F8FCA52F
:102F50000A9B13B1444BC3F800960B9B002B71D016
:102F6000414BC3F804866DE03F4B059AC3F8E42556
:102F7000D2E73D4BD3F8F845D3F8FC2594FBF2F4A7
:102F8000C3F8D445D3F80006D3F8042690FBF2F03A
:102F9000C3F8DC05354A0521116051609460D060AA
:102FA00003201061324A11605160D3F8E41591603A
:102FB000D3F8E815D16002211161D3F8F0252D492D
:102FC0000A602D490968521A2C490A600422C3F884
:102FD000C82501222A4B9A602FE62A4B012119703D
:102FE000244A12685A70204AD2F8D4059870D2F850
:102FF000DC05D8700523C2F8C835214B99601CE662
:10300000194A0023C2F838310123C2F8C8351C4AD6
:10301000936012E60022144BC3F8C8250122184B16
:103020009A600AE6104AD2F8D0E50EF10103C2F820
:10303000D035154A1768BB423FF422AF00220A4B35
:10304000C3F8CC250EF10203074AC2F8D035BB42C3
:103050000CBF03220222044BC3F8C8250122084BEF
:103060009A60EAE5704700BF84044020BC674220B4
:10307000F0674220D4674220780440200468422050
:1030800008004020D8664220040040208368002BBE
:1030900040F0DE8010B504464368052B00F2D38073
:1030A000DFE803F003091F4778A041F270720121A5
:1030B000684B984710BD684B1B68012B04D0012258
:1030C0001146644B984710BD644B654A1268C3F8BB
:1030D00008260022C3F83821012202215D4B9847BF
:1030E00010BD5F4B1B685D4AD2F8082693421BD087
:1030F0005A4AC2F808360123C2F83831594B1B78B6
:1031000013F0010F0AD1584B1B783BB10422574BE7
:103110001A70544A137843F00103137001220321FB
:1031200020464C4B984710BD01220221494B98473D
:1031300010BD4A4BD3F838313BB3484B9B68022B48
:1031400013D0032B19D0012B07D00022484B1A6053
:10315000012204213F4B984710BD464B984701225E
:10316000032120463B4B984710BD434B9847012213
:1031700003212046374B984710BD404B984701220A
:1031800003212046334B984710BD01220421314BC7
:10319000984710BD324B1B68304AD2F8082693423C
:1031A0001BD02E4AC2F808360123C2F838312D4B05
:1031B0001B7813F0010F0AD12B4B1B783BB1042273
:1031C0002A4B1A70274A137843F001031370012227
:1031D000052120461F4B984710BD012204211D4B9D
:1031E000984710BD1D4BD3F838313BB31B4BDB6800
:1031F000022B13D0032B19D0012B07D000221C4B1C
:103200001A6001220221134B984710BD194B9847B1
:103210000122052120460F4B984710BD164B9847B9
:103220000122052120460B4B984710BD134B9847B0
:10323000012205212046074B984710BD012202219B
:10324000044B984710BD01220021024B984710BD46
:10325000704700BFC910400068044020840440202B
:1032600060044020E8664220D8664220E76642209B
:103270007C044020F92B4000B91D4000452240004D
:1032800070B50F4E0F4D761BB61018BF002405D039
:10329000013455F8043B9847A642F9D10A4E0B4D2C
:1032A000761B00F093F8B61018BF002406D0013446
:1032B00055F8043B9847A642F9D170BD70BD00BFD8
:1032C000D8334000D8334000E0334000D8334000CA
:1032D000024B13B1024800F005B87047000000002F
:1032E000F1324000002301461A46184600F01AB891
:1032F00038B50A4C0A4D641BA4100AD004F180436F
:10330000013B05EB8305013C55F804399847002C37
:10331000F9D1BDE8384000F063B800BFF033400099
:10332000EC3340002DE9F047254C2568D5F848419D
:103330000646884692469946C4B360681F2817DC43
:10334000431C76B104EB80050122C5F888A0D4F8AF
:10335000881182401143022EC4F88811C5F80891E3
:103360001ED00230636044F820800020BDE8F08762
:10337000144B03B34FF4C870AFF300800446D0B1D0
:10338000D5F84831002780E88800C5F8484138461C
:103390000123C4F88871C4F88C71002EE1D0D1E704
:1033A000D4F88C110A43C4F88C21DAE705F5A67429
:1033B000C5F84841C1E74FF0FF30BDE8F08700BFD6
:1033C000C83340000000000018004020F8B500BFDE
:1033D000F8BC08BC9E467047D132400079014000DD
:1033E000F8B500BFF8BC08BC9E46704755014000C8
:1033F000A0000000780000000100000001000000B3
:10340000010000007F0000000000000004034020D5
:103410006C034020D40340200000000000000000A6
:10342000000000000000000000000000000000009C
:10343000000000000000000000000000000000008C
:10344000000000000000000000000000000000007C
:10345000000000000000000000000000000000006C
:10346000000000000000000000000000000000005C
:10347000000000000000000000000000000000004C
:10348000000000000000000000000000000000003C
:10349000000000000000000000000000000000002C
:1034A000000000000000000000000000000000001C
:1034B00001000000000000000E33CDAB34126DE6B9
:1034C000ECDE05000B000000000000000000000022
:1034D00000000000000000000000000000000000EC
:1034E00000000000000000000000000000000000DC
:1034F00000000000000000000000000000000000CC
:1035000000000000000000000000000000000000BB
:0400000500400000B7
:00000001FF
