:020000040040BA
:1000000048B94220C5014000C1014000C101400083
:10001000C1014000C1014000C101400000000000DA
:10002000000000000000000000000000C1014000CE
:10003000C101400000000000C1014000C1014000BA
:10004000C1014000C1014000C1014000C1014000A8
:10005000C1014000C1014000C1014000C101400098
:10006000C101400000000000C1014000C10140008A
:1000700000000000C1014000C1014000000000007C
:10008000C10140000000000000000000C10140006C
:10009000C101400000000000C1014000C10140005A
:1000A000C1014000C101400000000000000000004C
:1000B00000000000C1014000C1014000C10140003A
:1000C000C1014000C1014000C1014000000000002A
:1000D0000000000000000000000000000000000020
:1000E000C10140000000000000000000C10140000C
:1000F000C1014000000000000000000000000000FE
:100100000000000000000000C1014000C1014000EB
:10011000C1014000000000000000000000000000DD
:10012000C1014000C1014000C1014000C1014000C7
:10013000C1014000C101400000000000C1014000B9
:10014000C1014000C10140000000000000000000AB
:10015000C101400010B5054C237833B9044B13B1ED
:100160000448AFF300800123237010BD44044020F5
:1001700000000000783440000C4B43B10C480D499E
:1001800010B5AFF300800C48036823B910BD0A48CE
:10019000036833B97047094B002BF7D0BDE8104016
:1001A0001847064B002BF5D0184700BF0000000091
:1001B00078344000480440207834400000000000BB
:1001C000FEE7000008B5174B174A9A4210D0174BAC
:1001D000144A9A420CD2013B9B1A23F003030433C6
:1001E0001344114951F8040B42F8040B9A42F9D117
:1001F0000F4B104A9A420AD2013B9B1A23F0030389
:1002000004331344002142F8041B9342FBD10A4AF1
:100210000A4B23F07F039360094B9847094B98479B
:10022000FEE700BF00004020783440004404402036
:1002300048B342204404402000ED00E000004000AC
:10024000E13240001D1140008368002B40F01B810B
:1002500010B54368312B00F21181DFE813F0320052
:100260008B000F010F010F010F010F010F010F0193
:100270000F010F010F010F010F010F010F010F01FE
:100280000F010F010F010F010F010F010F010F01EE
:100290000F010F010F010F010F01AB000F010F0143
:1002A0000F010F010F010F010F010F010F010F01CE
:1002B0000F010F010F010F01B500C800D100F700B9
:1002C000030171490B7803F0FD0300226F4C22708B
:1002D0006F4C227043F0010303F0F70362F38203D3
:1002E0000B706C4BD3F8142142F01002C3F81421A8
:1002F000D3F8142142F02002C3F8142103F5B223ED
:100300005A6842F010025A605A6842F020025A605D
:100310001A6F22F010021A675A6F22F010025A6701
:100320001A6F22F020021A675A6F22F020025A67D1
:10033000594B1A78120402F4FE02584B5A6019699C
:1003400045F65D520A431A611A6942F440321A6155
:100350001A6842F020021A601A6842F004021A6019
:100360004F4A136943F480131361B42231214D4B7A
:10037000984710BD444B1B7813F0040F0CD113F0B9
:10038000080F12D0404A137843F001031370012282
:100390002D21444B984710BD3B4A43F00103137095
:1003A00001221E213F4B984710BD012211463D4BB3
:1003B000984710BD344B1A786FF382021A700122ED
:1003C0001146384B984710BD0022374B1A60324B0C
:1003D0001B781B0403F4FE03304A5360536823F474
:1003E0008053536001222E212E4B984710BD284B7D
:1003F0001A782A4B5A6301222F212A4B984710BDA5
:10040000264B1B6A13F0040F11D0274B1B68274A99
:1004100012789A4210DD264AD15C204A516301339A
:10042000214A136001222F211E4B984710BD012243
:100430002F211C4B984710BD184A136843F0020344
:10044000136001223021174B984710BD134B1B6AD4
:1004500013F0010F4FF001020CBF30213121114B7D
:10046000984710BD084A137803F0FE036FF3C303E7
:100470001370012211460B4B984710BD0122002139
:10048000084B984710BD70479C0A4020A00A4020A6
:10049000980A402000800840B10A402000C0014076
:1004A00000060E40D912400060044020B00A4020EF
:1004B000B40A40208268002A40F05F832DE9F04FA3
:1004C0008FB0049041680E2900F25183DFE811F0EB
:1004D0000F0056006100770087009300B400D6003B
:1004E000F80010013601040331033B0346039D4A23
:1004F000936B23F000439363A2F58062936B43F008
:1005000004039363A2F50072D2F8583143F00F034D
:10051000C2F85831944BD96D94491966944959667B
:100520009449096821F07F4119679349996700212F
:10053000D9665967D967C3F88010C3F88410D2F818
:10054000503143F01003C2F85031D2F8503123F447
:10055000C063C2F85031D2F8503143F00103C2F801
:100560005031864B1960864B196040F6B832012134
:100570000498844B98470FB0BDE8F08F824A936B84
:1005800023F0040393637822022104987D4B98475B
:10059000F1E77E4984238B647B4B5A6842F0080262
:1005A0005A604FF480620A601A6F42F008021A67BC
:1005B0004FF4167203210498724B9847DBE7694A9F
:1005C000936B43F0004393636C4A53680133536069
:1005D0004FF49662042104986A4B9847CBE7674B27
:1005E0005B68032B4FF00602CCBF05210021049865
:1005F000644B9847BFE7664B1B7813F0010F15D18A
:100600000122644B1A701E22634B1A706821634BDF
:1006100019703C21624B19705D490B7843F0080357
:100620000B7006210498574B9847A4E70122052137
:100630000498544B98479EE7554B1B7813F0010FD5
:1006400016D10122534B1A700222534B1A7000220A
:10065000524B1A703C22524B1A704D4A137843F099
:10066000080313701E2207210498464B984782E71F
:10067000012206210498434B98477CE7444B1B78A2
:1006800013F0010F16D10122424B1A700322424B84
:100690001A700E22414B1A703C22414B1A703C4A90
:1006A000137843F0080313701E2208210498354B79
:1006B000984760E7012207210498324B98475AE790
:1006C00001222E4B9A60374BDB6B13F4804F04D022
:1006D000344BDB6B13F4001F05D001220821049872
:1006E000284B984747E709210498264B984742E74B
:1006F0002C4BDB6B13F4804F1AD11A4A936B43F4E3
:1007000000139363184BDA6D194A5A660122DA61B5
:1007100000221A4BDA60244B03F5807123F8022F74
:100720008B42FBD101220A210498164B984722E7FD
:10073000012209210498134B98471CE70A49496A8A
:1007400011F0010F32D00D4BDA680A4B5B689A4208
:100750004FF001020CBF0B210A210498094B984766
:1007600009E700BF00140E4000800740640F0E40F0
:10077000C40A4020000040200328042264044020D2
:10078000043A4120D912400000100E4000060E40ED
:100790009C0A4020B00A4020980A4020B40A402019
:1007A000B10A4020000E0E40020C4020C048C16833
:1007B0000131C160BF490020C1F88400BFF34F8FF1
:1007C000D1F88010C1F34E37C1F3C9084FEA471E74
:1007D0004FEA887943F6E07CB64E0EEA0C054846AF
:1007E000414645EA0004C6F86C42013900F1404038
:1007F000B1F1FF3FF5D1013FAEF1200EB7F1FF3F60
:10080000EBD1BFF34F8FBFF36F8FAB49C86DAB48D0
:1008100048660120C861A7490020C1F88400BFF3E1
:100820004F8FD1F88010C1F34E37C1F3C9084FEA9A
:10083000471E4FEA887943F6E07C9E4E0EEA0C058F
:100840004846414645EA0004C6F86042013900F1D5
:100850004040B1F1FF3FF5D1013FAEF1200EB7F1BD
:10086000FF3FEBD1BFF34F8FBFF36F8F9449096800
:10087000069100297FF767AF8D49D1F810A0D1F814
:1008800014C0C8680446099002380B90096801F04A
:1008900001010591601E8B4901448B4F07EB8107D5
:1008A0008A4901448A4E06EB81061546DFF824E2A8
:1008B0000A920B9800F178020C9204F178020D92E2
:1008C00066E0BAF1010F07D0BAF1020F0CBF4FEA90
:1008D00049024FEA880274E04FEA880271E0C3459A
:1008E00008D0CB450ED0A34515D0002BB8BF03F5DB
:1008F000B4738BE0A9EB0404C4EB0414A30093FBD2
:10090000F1F3F2E7A4EB0804C4EB0414A30093FB97
:10091000F1F37833E9E7A8EB0908C8EB08184FEAC8
:10092000880393FBF1F3F033DFE70B98684C54F83E
:10093000204004F07F080998654C54F8204004F0EA
:100940007F090C98624C54F8200000F07F00029060
:100950000D9854F8200000F07F00039065E00A9C99
:10096000059A002A00F09280019A42EA414141EA48
:100970000321C7F8E411396841EAC45139600135EF
:1009800007F5F07706F5F076069A954280F28C80AE
:100990004A4A32F915201402A1B2C2F307240C44CA
:1009A000C4F3C428C4F3451904F01F04BAF1000FBE
:1009B00087D14FEA890202EB880202EB44024A44E3
:1009C0009210019294443EF8121001312EF8121048
:1009D0004FEA48086400CB46A145B8BFA346C345CB
:1009E000B8BFC3464946A145A8BF21464145D4BF2B
:1009F000ABEB0101ABEB080102293FF770AFBBF194
:100A00000D0F40F26B1328BF4FF4B773012DA6DD15
:100A1000099C012C36DD022D87D0DDF80C9008985A
:100A20000390DDF8088007980290D6F8BC4304F0E4
:100A30007F0407941419A4EB0804A4EB0909D6F861
:100A4000C04304F07F04306800F07F08A4EB080482
:100A500009EB44080398029CA0EB040B08EB4B0045
:100A600080EAE07BABEBE07B88EAE879A9EBE87908
:100A70000BEB09047F2CA8BF7F24132C04DC0A9CF9
:100A800008926DE70A9C6BE7089269E7019A42EACF
:100A9000414141EA0321C6F8C413D6F8E02142EAF5
:100AA000C452C6F8E0216AE7014BC3F814C04AE615
:100AB0006404402000ED00E000800740C40A4020AC
:100AC0000000402088FFFF3F083A412010FFFF3F11
:100AD000040E4020040C4020284B1B6813F0010F2B
:100AE0001ED0274A936B43F4800393630122254B66
:100AF0001A60224B1A6801321A605A692249A1FB16
:100B00000212D20A9A611E498A6B22F400128A6389
:100B100000225A610122082104981C4B98472AE5BB
:100B2000174A936B23F4800393630022154B1A60DA
:100B3000DFE74FF48062164B5A6006220D210498BD
:100B4000124B984717E5134A936B43F004039363E2
:100B500001220E2104980D4B98470CE50022074B0B
:100B6000DA6101220E210498084B984703E501221F
:100B700000210498054B9847FDE470476404402029
:100B800000140E40043A4120B5814E1BD91240009A
:100B900000060E4000100E4008B583684BB943684C
:100BA000012B16D0022B1FD023B1012200211C4B98
:100BB000984708BD1B4A936B23F0010393631A4BBC
:100BC00000221A62DA6141F270720121144B9847D7
:100BD00008BD154B9B68012B4FF001020CBF022191
:100BE00011460F4B984708BD0F4A136AD26902F0AD
:100BF00007029A420B498A6BCCBF42F0010222F0F5
:100C000001028A630133072B06D0074A13620122CF
:100C10000221034B984708BD0022034B1A62F6E7F6
:100C2000D912400000140E40640440202DE9F84F12
:100C300083684BB94368012B5BD0022B78D02BB172
:100C400001220021954B9847BDE8F88F944BD3F8CB
:100C5000902042F00072C3F890205A6E42F0007269
:100C60005A665A6942F000725A615A6842F000723C
:100C70005A605A6842F080625A601A6F22F000721D
:100C80001A675A6F42F000725A671A6F22F0806238
:100C90001A675A6F42F080625A6703F5C0635122A7
:100CA0001A624FF400625A601A6842F050021A60E9
:100CB00000237C4A13707C4A13707C490A7802F046
:100CC000FA0263F3C3020A70794A1370794A936B8C
:100CD00023F080739363A2F50062D2F8003143F4ED
:100CE0008053C2F80031642201216C4B9847BDE863
:100CF000F88F714BD3F89C20704AC3F8A020704A3B
:100D0000C3F8A4200122C3F8B0206E49C3F8B8107C
:100D10000021C3F8AC10C3F8B410C3F8BC10C3F87A
:100D2000C010C3F8C41002215C4B9847BDE8F88F8F
:100D30005E4B1B7813F0010F45D013F0020F3DD12D
:100D4000614B5B6913F0020F3DD05A4A936B43F03D
:100D500080739363544B1978524B1A7891421AD28C
:100D60004B1CDBB24D1E554C2544561E761A51FACB
:100D700086F6264454494F4C15F8012FCA614A693A
:100D800012F0020F17D0A26B42F08072A2630133FF
:100D9000DBB2B542F0D10023434A1370414A1370CD
:100DA000424A117863F300011170424A936B23F0B9
:100DB0008073936307E03C4A137004E03E4B5B6A28
:100DC00013F0020F1DD0404B5B6913F0400F51D15F
:100DD0003D4B5B6913F0200F4CD1354B1B78334AE8
:100DE0001778C7F3C00CC7F380074FF0000EF0462A
:100DF000F346354D2F4C01210E46F246DFF8CC90DC
:100E00000FE02A4B1A786FF300021A70294A936B8D
:100E100023F080739363BDE8F88F8846B446534649
:100E20008B466A6912F0010F0DD0A26B42F08072FE
:100E3000A263072BF1D8AA6909F803200133DBB2BA
:100E40008E463746ECE7BBF1000F10D1B8F1000F2A
:100E500004D0164B1A786CF3C3021A70BEF1000F5F
:100E600015D0124B1A7867F382021A700FE0104AFD
:100E70001370EBE7144A136843F480731360002285
:100E80000B4B1A70094A137843F0080313700122C0
:100E90000221024B9847BDE8F88F00BFD9124000ED
:100EA00000140E40DB664220086642208067422024
:100EB000D3664220000E0E40008007400C664220A0
:100EC0001C1A0E4011400118001A0E40D466422030
:100ED0002DE9F84F83683BB943683BB1012B5CD0E7
:100EE00001220021814B9847BDE8F88F804BD3F851
:100EF000902042F00102C3F890205A6E42F00102A5
:100F00005A665A6942F001025A615A6842F0010277
:100F10005A605A6842F002025A601A6F22F00102C7
:100F20001A675A6F42F001025A671A6F22F00202E2
:100F30001A675A6F42F002025A676E4AA3F520639D
:100F4000C3F80C216C4B5A6842F400225A604FF4EB
:100F500074721A625968694A0A435A6040221A60D8
:100F60001A6842F010021A600023654A1370654A3D
:100F7000137065490A7802F0FA0263F3C3020A703B
:100F8000624A1370624A936B23F080739363642206
:100F90000121564B9847BDE8F88F5B4B1B7813F047
:100FA000010F35D0544B5B6913F0020F30D0584A13
:100FB000936B43F080739363524B1978504B1E78B8
:100FC000B14216D24B1CDBB2524A11440136F6B282
:100FD000494C4F4D11F8012BE261626912F0020F8A
:100FE00034D0AA6B42F08072AA630133DBB2B34201
:100FF000F0D10023434A1370414A1370424A1178DA
:1010000063F300011170424A936B23F08073936382
:10101000394B5B6913F0400F48D1374B5B6913F0D4
:10102000200F43D1394B1A78374B1F78C7F3C00CC8
:10103000C7F380074FF0000EF046F3462E4D344CB8
:1010400001210E46F246DFF8D09006E02D4A1370DB
:10105000DEE78846B44652468B466B6913F0010FB3
:101060000DD0A36B43F08073A363072AF1D8AB695B
:1010700009F802300132D2B28E463746ECE7BBF1B6
:10108000000F10D1B8F1000F04D01F4B1A786CF389
:10109000C3021A70BEF1000F22D01B4B1A7867F3FF
:1010A00082021A701CE0194B1A70EBE7124A13689F
:1010B00043F48073136002F53C2202F5006213686A
:1010C00043F0040313600022104B1A700E4A137889
:1010D00043F0080313700E4A936B23F080739363FD
:1010E00001221146014B9847BDE8F88FD912400004
:1010F00000100E400D10001000400240C00800809B
:10110000EB664220F0664220EC664220F166422007
:10111000000E0E40DC664220E46642202DE9F84FC6
:10112000484B9847484B9847484E00233360484DFA
:1011300048492846484CA047306800EB40004749E2
:1011400005EB8000A047306800EB4000444905EB08
:101150008000A047306800EB4000424905EB80006A
:10116000A047306800EB40003F4905EB8000A047F6
:10117000306800EB40003D4905EB8000A047306837
:1011800000EB40003A4905EB8000A047306800EBD7
:101190004000384905EB8000A047374E374F384CA8
:1011A000384D17E0384D394CA847A36B43F0006326
:1011B000A363F9E70C338B4205D09A68002AF9DD66
:1011C000013A9A60F6E7324B98472F4B98472368CD
:1011D000002B16DC336813F4803FF8D0B84723683F
:1011E000012BDFD0012323602B6801332B60174BC9
:1011F00019680029E7DD164B01EB410103EB810182
:10120000DBE7124B1B68002B19DDDFF844904FF031
:101210000008DFF880B0DFF834A007E008F101082B
:1012200009F10C09DAF80030434508DDD9F8083037
:10123000002BF3D15BF8283048469847EEE70023AF
:101240002360C7E7F112400099124000F86642207F
:10125000FC6642209D144000A51240002D0C400069
:1012600049024000990B4000D10E4000B5044000F7
:101270007D154000E130400010E000E0991440008E
:1012800084674220F4664220E1124000000E0E40C6
:101290009B144000886742200022014B1A6070476F
:1012A000F46642200A4B1B680C2B0EDC10B40022A3
:1012B000426001248460074C44F823100133044940
:1012C0000B600360104610BC70470120704700BFE0
:1012D000F8664220886742204160826070470000C3
:1012E000014A024B1A607047010000A550180E40D9
:1012F000F0B55F4AD2F8143143F48053C2F8143188
:101300004FF4C0625B4B1A6003F500734FF0FF327D
:101310001A60594A1A61C3F8A02003F500736FF0F0
:1013200001021A601A61C3F8A02003F580636FF010
:1013300000721A601A61C3F8A020A3F560631A69ED
:1013400042F480321A614D4AC3F80C210132C3F8CD
:101350000C214B4A1A621A46936E13F0010FFBD010
:10136000484A494B1A621A46936E13F4803FFBD0E9
:10137000464A454B9A621A46936E13F0020FFBD011
:10138000414A136B23F070031363936E13F0080F3D
:10139000FBD03D4A136B23F4407343F48073136313
:1013A000936E13F0080FFBD0374A136B23F003033F
:1013B00043F002031363936E13F0080FFBD0324A1D
:1013C000D2F8003143F08063C2F80031304B46F26E
:1013D000A8125A609A601A6822F480321A601A6859
:1013E00042F001021A60BFF34F8FBFF36F8F03F516
:1013F0004F630021C3F85012BFF34F8FBFF36F8FBD
:101400005A6942F400325A61BFF34F8FBFF36F8FB6
:10141000C3F88410BFF34F8FD3F88070C7F34E35F5
:10142000C7F3C9076E014FEA877C43F6E07E1C468E
:1014300006EA0E0062463B4642EA0001C4F860122A
:10144000013B02F14042B3F1FF3FF5D1013D203EA7
:10145000B5F1FF3FECD1BFF34F8F0E4A536943F410
:1014600080335361BFF34F8FBFF36F8FF0BD00BF69
:1014700000800840000C0E40C7819FFF0A1000103A
:10148000096437000964370100060E400124192061
:1014900010E000E000ED00E07047704708B54368D9
:1014A00033B1012B0FD0002211460C4B984708BDD9
:1014B0000B4A936B43F00063936340F6B73201210C
:1014C000064B984708BD064A936B23F0006393636D
:1014D00040F6B7320021014B984708BDD9124000B1
:1014E000000E0E4030B403460028B8BFC31C9B104A
:1014F000444200F0030004F0030458BF6042012896
:101500001ED002282AD068B11B4D1801C41A01EB65
:10151000C40455F8243023F07F4303EB026245F8FE
:1015200024200BE0144D1801C41A01EBC40455F833
:10153000243023F0FF031A4445F8242030BC7047C0
:101540000D4D1801C41A01EBC40455F8243023F4DE
:101550007F4303EB022245F82420EFE7064D1801F4
:10156000C41A01EBC40455F8243023F47F0303EBC1
:10157000024245F82420E1E7246842208368002BDA
:1015800040F000842DE9F04F87B042680C2A00F249
:10159000F483DFE812F00D002A00140150020F035B
:1015A00024035103B703F203F203C903D303DE0399
:1015B00000239D4A13609D4A13609D4A13609D4914
:1015C0008A6B42F080728A63A1F5C0618A6B22F057
:1015D00080728A63984A136053604FF4E1520A2183
:1015E000964B984707B0BDE8F08F954A1278002ACD
:1015F00078D09449097811F0080F61D18E494D686F
:10160000D1F80880D1F80CA00C6901944C690594BC
:10161000896903914FF0000BCDF810B0CDF808B0F8
:10162000D946CDF800B05F46DFF83CC24FF0010E5E
:10163000764607E0A2461D46009610E00391CDF8DD
:1016400010E07746D2B1013AD2B21CF802100C0970
:1016500001F00F010135022DECD0A046B14637460E
:10166000022C04D0032C05D0012CEBD1E6E7059128
:10167000F346E6E70191CDF808E0E2E7DFB9009B29
:1016800013B16D4BC3F80CA0B9F1000F02D06A4B37
:10169000C3F80880029B13B1674B019A1A61049B3F
:1016A00013B1654B039A9A61BBF1000F10D0624BE6
:1016B000059A5A610CE0624B1A705F4B5D60DEE781
:1016C000604B1A786FF3C3021A7000225C4B1A70D9
:1016D0005C4B1A786FF382021A705B4A936B23F0AB
:1016E00080739363594B1B7813F0040F62D013F08F
:1016F000080F48D1564B1B784F4A1377423B102BAB
:101700003CD8DFE803F02E3B163B3B271B3B3B3B23
:10171000093B3B3B363B200000224E4B1A604A4AB5
:10172000936B43F08003936301220221434B98475C
:1017300032E001220221414B98472DE00122022193
:101740003E4B984728E00122424B1A6002213B4B56
:10175000984721E002213F4B19600122374B9847FF
:101760001AE003223B4B1A6001220221334B9847B7
:1017700012E001220321314B98470DE0012211466E
:101780002E4B984708E0314B1A786FF3C3021A705A
:1017900001221146294B98472C4B1A786FF382028D
:1017A0001A7000222C4B1A70274A936B23F0807317
:1017B000936317E701221146204B984712E7234A0B
:1017C000127812F0010F40F031812449FF220A7093
:1017D000194AD2F8009081F80190177F442F49D020
:1017E000502F43D0482F1E4A52F8292014BFC2F36D
:1017F000450EC2F3862E194A82F803E0194AD2F840
:1018000000C0BCF1010F40F30981154E06EB8906BB
:101810001C4601210D46DFF844800CF1FF32009395
:101820001346019067E000BF18684220B467422069
:101830000C68422000140E4088044020D912400059
:10184000F1664220EC664220000E0E408067422086
:10185000D466422074044020D36642200C664220A5
:10186000040E402000004020E4664220C54A12F8E1
:1018700029E0C0E7C44A52F829204FEA126EBAE7BD
:101880000A460029B8BFCA1C9210D1F1000B01F022
:10189000030A0BF0030B58BFCBF1000ABAF1010F9A
:1018A00036D0BAF1020F3DD0BAF1000F08D0C2EB2A
:1018B000021209EBC202B34850F82220120E06E0D1
:1018C000C2EB021209EBC202AE4810F822205210FD
:1018D000724536D0002C4BDD08EB050E803C8EF8AF
:1018E00003408EF804200235009C013106F5F076A5
:1018F0009646614542D0502FC2D0482F1CD0442F6D
:101900000CBF96F8E321D6F8E02102F07F02DFE772
:10191000C2EB021209EBC2029A4850F82220C2F32D
:101920000722D4E7C2EB021209EBC202954850F835
:101930002220C2F30742CAE7D6F8E021C2F386228A
:10194000C6E701348B420BD0402CCED108EB050406
:101950006FF04000E07084F804E00235009CC4E7BA
:1019600008EB050EA4F1800A8EF803A00135BCE750
:1019700008EB050E8EF803200135B6E70198834B7E
:101980009D70834B0022C3F88420BFF34F8FD3F8A0
:101990008030C3F34E37C3F3C90C4FEA471E4FEAFA
:1019A0008C7943F6E0787A4E0EEA08044A4663469C
:1019B00044EA0201C6F86C12013B02F14042B3F165
:1019C000FF3FF5D1013FAEF1200EB7F1FF3FEBD164
:1019D000BFF34F8FBFF36F8F6E4A6C4BC2F8A030CE
:1019E000EB1C23F07F43C2F8B0300223D3616A4A74
:1019F000137843F003031370684A936B43F08073CA
:101A00009363674A136801331360664A126893420E
:101A100006D001220421644B9847E3E50125AEE797
:101A20005F4B01221A6200221A60F2E7012211467E
:101A30005D4B9847D6E5584A127812F0010F40F0F6
:101A40009C80524AFF21117055490D685570574AC4
:101A50001468002C3BDD56494A4E0AE0C2EB0212E4
:101A600005EBC20216F8222001F8012F0133A34230
:101A70002ED01A46002BB8BFDA1C9210D3F1000EFC
:101A800003F003070EF0030E58BFCEF10007012F3D
:101A90000BD0022F12D0002FE0D0C2EB021205EBC8
:101AA000C20256F82220120EDEE7C2EB021205EB4C
:101AB000C20256F82220C2F30722D5E7C2EB021277
:101AC00005EBC20256F82220C2F30742CCE71C46BF
:101AD0002E4B9C702E4B0022C3F88420BFF34F8FF7
:101AE000D3F88030C3F34E37C3F3C90C4FEA471E17
:101AF0004FEA8C7943F6E078254E0EEA08054A460F
:101B0000634645EA0201C6F86C12013B02F140420D
:101B1000B3F1FF3FF5D1013FAEF1200EB7F1FF3F2A
:101B2000EBD1BFF34F8FBFF36F8F1A4A174BC2F839
:101B3000A030E31C23F07F43C2F8B0300223D3610E
:101B4000154A137843F003031370144A936B43F060
:101B500080739363124A136801331360114A126849
:101B6000934204D0012204210F4B98473AE50C4BD5
:101B700001221A6200221A60F4E7012211460A4B80
:101B800098472FE524684220040E40200C6642202E
:101B900000ED00E00080074080674220000E0E400C
:101BA0008804402004004020D9124000000040205A
:101BB0000E664220744B1B7813F0010F0AD1734B51
:101BC0001B6A012B4FF001020CBF05211146704B1F
:101BD000984707E5012204216D4B984702E56A4BBF
:101BE0001B7813F0040F22D013F0080F15D1694BA6
:101BF0001A78664B1A7701220621654B9847624B8B
:101C00001A786FF382021A700022634B1A70634ACB
:101C1000936B23F080739363E4E45B4B1A786FF368
:101C2000C3021A7001221146594B9847E7E7012277
:101C30000521574B9847D5E4594BFF221A70FE22D5
:101C40005A700D229A70574A5168D97011681971EB
:101C500091685971D16899711269DA71524A516863
:101C600019721168597291689972D168D9721269A2
:101C70001A734E4A12685A73444A91689973D2682B
:101C8000DA734B4B0022C3F88420BFF34F8FD3F895
:101C90008030C3F34E36C3F3C90E77014FEA8E7816
:101CA00043F6E07C424D07EA0C044246734644EAA0
:101CB0000201C5F86C12013B02F14042B3F1FF3F53
:101CC000F5D1013E203FB6F1FF3FECD1BFF34F8F7E
:101CD000BFF36F8F374B324AC3F8A0201022C3F8EE
:101CE000B0200222DA61284A137843F0030313700C
:101CF0002A4A936B43F08073936301220721244B9C
:101D000098476FE4204B1B7813F0010F07D1002296
:101D10001E4B1A62012211461D4B984762E40122B4
:101D200007211B4B98475DE4234A936B23F0807394
:101D300093630C220B21164B984753E41E4A936B76
:101D400043F0807393634FF416720C21104B984745
:101D500048E41A4A137803F0F7036FF38203137011
:101D60000022174B1A700D4A936B23F08073936314
:101D700006220121064B984734E401220021044B3E
:101D800098472FE4704700BF8067422088044020B6
:101D9000D9124000D4664220D3664220000E0E4085
:101DA0000C664220C0674220F46742207C04402039
:101DB00000ED00E00080074000140E40EC66422079
:101DC000F1664220A24A1368013B1360002B40F0E9
:101DD00043822DE9F04F87B09E4A526A082A00F2EA
:101DE0003482DFE812F009006F00320291004501F1
:101DF0003202D101F0012402964B35229A624F2023
:101E0000D8621221196309225A6347249C66D86656
:101E100019675A675924C3F8A840C3F8AC00C3F83F
:101E2000B010C3F8B4202D2199635820D86317212E
:101E300019645A6444249C67D867C3F88010C3F8B7
:101E400084205B24C3F8B840C3F8BC00C3F8C010BA
:101E5000C3F8C420272199646120D8641B21196527
:101E60005A654224C3F88840C3F88C00C3F8901028
:101E7000C3F894205D24C3F8C840C3F8CC00C3F86D
:101E8000D010C3F8D420202199656A20D86519663E
:101E90005A664024C3F89840C3F89C00C3F8A010C9
:101EA000C3F8A4206024C3F8D840C3F8DC00C3F80A
:101EB000E010C3F8E42001225A62654B1A6007B0B3
:101EC000BDE8F08F644A936B43F080039363012174
:101ED000624B19605F4B624A1268C3F8E8207F22A8
:101EE000C3F8EC200022C3F8F0204E20C3F8F40021
:101EF0003520C3F8F800C3F8FC20C3F80021032202
:101F00005A62534B1960DAE7524AD2F8FC30049314
:101F1000D2F80011059101EB830302EB0313D3F810
:101F20002C90996A08460091596B49440C460191DE
:101F30001B6B02931E18C2F8F490A14550DA494B6E
:101F40001F68D2F8E8E0D2F8EC80D2F80441D2F869
:101F5000F0B0C0EB001A09EBCA0A4FEA8A0A002265
:101F60001346414DDFF804C10121039127E052F8E7
:101F70000C3003F07F00704523F0FF0328BF43447B
:101F800042F80C300444013102F5F0728E420BD05D
:101F9000012FECD0535903F07F00704523F0FF036D
:101FA00028BF43445351EDE7029B9B440122039B0E
:101FB00009F101090AF1040A0198484506D000997F
:101FC000B14201DA5246E3E70099F1E7B3B912B141
:101FD000204BC3F8F0B01F4BC3F8F810C3F8F490CF
:101FE000049B01331B4AC2F8FC30032B0AD00322A6
:101FF000184B5A620122164B1A6060E7154BC3F862
:102000000441E4E70023C2F8FC30059B0133C2F829
:102010000031042B06D003220E4B5A6201220C4BD6
:102020001A604CE713460022C3F80021D3F80411CC
:10203000D3F8F000B1FBF0F1C3F8E810C3F80421C5
:10204000C3F8F02004225A620122014B1A6036E7DD
:102050000800402088044020000E0E4080044020EC
:102060007C044020043A4120040E4020083A4120DC
:102070007A4BD3F8FCB0D3F800211446019202EB5E
:102080008B0203EB0211D1F82CE0D1F82890486BB9
:102090000EEB000A086B484403EB82020021C2F8F1
:1020A0000811C3F8F4E0D64546DA6D4B1D686B4B5A
:1020B000D3F8EC60C9EB091C0EEBCC0C4FEA8C0C8E
:1020C0004B468145B8BF03460093664F04EB8B0433
:1020D000624A02EB8404DFF89C8122E052F8081087
:1020E00001F07F01B14204D2D4F808110131C4F8E3
:1020F0000811013302F5F07298420CD0012DEDD099
:10210000D15901F07F01B142F3D2D4F80811013165
:10211000C4F80811EDE70EF1010E0CF1040CF245C4
:1021200004D08145F7DA62464B46E7E74B4B009A0D
:10213000C3F8F820C3F8F4E00BF10103474AC2F8F2
:10214000FC30032B06D00422444B5A620122464B3A
:102150001A60B4E60023C2F8FC30019B0133C2F8D8
:102160000031042B06D004223C4B5A6201223E4B24
:102170001A60A4E613460022C3F8002106225A6220
:102180000122394B1A609AE6344AD2F810210B2A00
:10219000A8BF0423314AD2F820210A2AC8BF43F03D
:1021A00002032E4AD2F830210A2AC8BF43F00103A5
:1021B0002E4A5370022313700722284B5A620622BC
:1021C000294B1A607BE6254AD2F80C210B2AB4BFB2
:1021D0001A4604222149D1F81C110A29C8BF42F02D
:1021E00002021E49D1F82C110A29C8BF42F001028F
:1021F0001E498A70194AD2F808210B2AA8BF042365
:10220000164AD2F818210A2AC8BF43F00203134A1B
:10221000D2F828210A2AC8BF43F00103134AD37019
:1022200008220E4B5A6206220F4B1A6047E60B4AF1
:102230000023C2F83831012353620B4A13600C4A61
:10224000936B23F08003936339E60022034B5A62B9
:102250000122054B1A6032E6704700BF8804402017
:10226000043A4120040E402008004020DC66422051
:10227000000E0E40083A4120BB4A5368013B5360B0
:10228000002B40F0C7842DE9F04F83B0B74BD3F853
:102290003C31072B00F29284DFE813F008001100B4
:1022A0006400BB01A5034E04650480040123AF4A0A
:1022B000C2F83C31AC4A536003B0BDE8F08FAC4A81
:1022C000936B43F480739363A84A0123C2F84031AF
:1022D00002F5A07302F56F72002143F8041F9342C8
:1022E000FBD1A24A02F5707302F29C52002143F81E
:1022F000041F9342FBD19D4B1B69022B1ED0032B65
:1023000026D0012B09D0994B4FF4A042C3F8A42545
:102310004FF47052C3F8A82508E0944B4FF4B43240
:10232000C3F8A425A2F5A852C3F8A82502228F4B12
:10233000C3F83C2101228C4B5A60BDE78B4B4FF414
:10234000DE42C3F8A4254FF4B442C3F8A825EDE754
:10235000864B4FF46642C3F8A4254FF45142C3F8AC
:10236000A825E3E70122814BC3F8AC25814B1E6809
:10237000731E934240F32B847F4B1C687B4BD3F836
:1023800040E1D3F8A455D3F8A875CEEB0E135B014A
:1023900004337A4818447A4A134406F1FF3801227C
:1023A000DFF8E49119E08446016801EA090AAA45C8
:1023B00005D2BA4503D941F00041016008E021F09F
:1023C0000041CCF8001003E021F00041CCF80010EF
:1023D00001320430043342450DD0012CE3D09C4639
:1023E000196801EA090AAA45EED2BA45ECD941F0CA
:1023F00000411960ECE75D4BC3F8AC250EF1010319
:1024000060490968A1F1020A53450CD0C3EB0313DC
:102410005B010433594903EB010C59490B4401207A
:10242000DFF8649127E0514B0222C3F840210322D8
:10243000C3F83C2101224C4B5A603DE7E046DCF8F2
:10244000001001EA090B5D4506D95F4504D241F051
:102450000041CCF8001008E021F00041C8F800105D
:1024600003E021F00041C8F8001001300CF1040C29
:10247000043382420DD0012CE0D09846196801EA5D
:10248000090B5D45EDD95F45EBD241F00041196084
:10249000EBE7364BC3F8AC050EF10202924513D0C0
:1024A000324B35490F68D3F8A455D3F8A885C2EB51
:1024B00002125201111D314C0C44314B194406F1EA
:1024C000FF390123304E24E0284B0222C3F840217B
:1024D0000322C3F83C210122234B5A60ECE6A446B8
:1024E000206800EA060BAB4505D2C34503D940F08E
:1024F0000040206008E020F00040CCF8000003E03D
:1025000020F00040CCF800000133043404314B4586
:102510000DD0012FE3D08C46086800EA060BAB45CE
:10252000EED2C345ECD940F000400860ECE70F491B
:10253000C1F8AC350EF103018A4509D002F5F272FB
:102540000E4C14440E490A440120DFF83CC035E02B
:10255000064B0222C3F840210322C3F83C2101228A
:10256000014B5A60A8E600BF0800402088044020C4
:10257000000E0E4004004020043A4120083A412059
:10258000040E40200000402000FF01002646216884
:1025900001EA0C094D4505D9C84503D241F0004177
:1025A000216006E021F00041316002E021F00041AD
:1025B000316001300434043283420DD0012FE5D064
:1025C0001646116801EA0C094D45EFD9C845EDD210
:1025D00041F000411160ECE7CA4BC3F8AC050EF1C5
:1025E0000403C84AC2F84031534507D00222C54B04
:1025F000C3F83C210122C44B5A605DE61346022217
:10260000C3F840210322C3F83C210122BE4B5A608B
:1026100052E6BC4B0022C3F8B0250222C3F8AC2519
:10262000BA4B1B68023B934240F3D680DFF8F0922E
:102630004FF0010803271446DFF8E8A2A9F57375E7
:10264000B34E3BE0D5F84031B24A1801C11A04EB51
:10265000C10152F82110A0EB030E08EBCE0E52F888
:102660002EC003F1010ECEEB0E1E04EBCE0E52F87F
:102670002EE0C01A07EBC00052F82000013BC3EB6C
:10268000031304EBC30352F823200023C5F8B43529
:1026900099425EDB00222146D5F840019E4B9847C7
:1026A0000134C5F8AC45013709F1040908F1010806
:1026B000964B1B68023BA34240F38E80DAF8003051
:1026C000012BBFD0D5F840311901CA1A04EBC20260
:1026D00056F82220C81A08EBC00056F820E0581C13
:1026E000C0EB001004EBC00056F82000C91A07EB3D
:1026F000C10156F82110013BC3EB031304EBC303E4
:1027000056F823C00023C5F8B4359A42C2DA02F065
:1027100000420EF0004E724543D000F0004082426D
:1027200043D001F000418A4245D00CF0004C624594
:1027300047D0D5F8B435032B49DDD9F80030013343
:10274000C9F80030D5F8B0350133C5F8B035FF22EF
:10275000A1E701F000410CF0004C614511D00EF0F2
:10276000004E714511D000F00040814213D002F0BC
:1027700000429142DDD1D5F8B4350133C5F8B43506
:10278000D7E70123C5F8B435E9E7D5F8B435013307
:10279000C5F8B435E7E7D5F8B4350133C5F8B43535
:1027A000E5E70123C5F8B435B7E7D5F8B43501330B
:1027B000C5F8B435B5E7D5F8B4350133C5F8B43547
:1027C000B3E7D5F8B4350133C5F8B435B1E7002B1C
:1027D000D4BF002246225EE74A4BD3F84021104680
:1027E000019203EB8202D3F8B015C2F84411421CE7
:1027F0000092C3F84021494B1B68033B9A4222D008
:10280000404B0022C3F8B0250222C3F8AC253F4B51
:102810001B68023B934240F3CC80009BC3EB031642
:102820007601351D3B4B05EB0308A6F5EC7606EB70
:102830000309374B1D441E441446DFF8E8A0314F0E
:1028400007F5717B2BE004222E4BC3F83C210122BB
:102850002D4B5A6030E5D8F80430D8F800E0D9F8AC
:10286000C003D8F80810D9F800204FF0000CC7F8C2
:10287000B4C5634558DB002221460098264B984793
:102880000134C7F8AC4508F1040809F1040904351E
:1028900004361E4B1B68023BA34240F38A80DAF8E1
:1028A0000030012BD7D06B68D5F800E0D6F8C00314
:1028B000A96832684FF0000CC7F8B4C56345DADA8E
:1028C00003F000430EF0004E734556D000F0004078
:1028D000834257D001F000418B4259D002F00042B0
:1028E00093425BD0D7F8B435032B5DDD5BF8243021
:1028F00001334BF82430D7F8B0350133C7F8B03581
:10290000FF22B9E78804402008004020040040204E
:10291000040E4020083A4120E51440000000402009
:1029200054084020043A412003F000430EF0004ECA
:10293000734511D000F00040834212D001F00041F5
:102940008B4214D002F000429342CBD1D7F8B43579
:102950000133C7F8B435C5E74FF0010EC7F8B4E549
:10296000E8E7D7F8B4050130C7F8B405E6E7D7F8CB
:10297000B4150131C7F8B415E4E74FF0010EC7F8FC
:10298000B4E5A3E7D7F8B4050130C7F8B405A1E76B
:10299000D7F8B4150131C7F8B4159FE7D7F8B435A7
:1029A0000133C7F8B4359DE7002BD4BF002246227F
:1029B00062E7994A009B02EB8303D2F8B015C3F893
:1029C0004411019B0233C2F84031944A1268033A21
:1029D00093420CBF042203228F4BC3F83C210122F7
:1029E0008F4B5A6068E48C4B0222C3F8B8254FF035
:1029F000FF32C3F8BC25894B1C68A31E012B1ADDCE
:102A000088491C46002596462E46022001231F4673
:102A10009C4602E00133A34208D051F8042F9042B3
:102A2000F8DA9E4610463D466646F3E7D6B915B13C
:102A3000794BC3F8BCE5784B0222C3F8C0254FF0B0
:102A4000FF32C3F8C425784B1C68A31E012B43DD5D
:102A500076491C46002516462F46022001239E4635
:102A60009C4606E06C4BC3F8B805E0E70133A3428F
:102A700008D051F8042F9042F8DA1E4610467546E9
:102A80006746F3E727BB3DB3634BC3F8C465D3F890
:102A9000BC15002920DD002E1EDDD3F8C025D3F89B
:102AA000B8359A42B8BF1A460424614B1C60614B8A
:102AB0001A605A609960DE60574B1B69022B33D055
:102AC000032B35D0012B11D004225A4B1A6110E090
:102AD000514BC3F8C005D6E70122554B1A60554B40
:102AE00000221A605A609A60DA60E5E70122514BD1
:102AF0001A61514B03221A605A604F229A603B229E
:102B0000DA6002221A6149F2F0634C4AD358C3F3E7
:102B100047234B4A136005223F4BC3F83C21012257
:102B20003F4B5A60FFF7C8BB0222424B1A61E0E7F5
:102B30000322404B1A61DCE70322424B1A70364BEA
:102B4000D3F8C025D3F8B8359A4209DD3D4B5A7009
:102B50000623314AC2F83C31314A5360FFF7ACBB1F
:102B6000384A5370F4E72C4BD3F8BC35002B10DDFA
:102B7000294AD2F8C425002A0BDD32498B70CA706D
:102B80000722254BC3F83C210622254B5A60FFF74C
:102B900093BB2C4BFF229A70DA70F1E71E4A002398
:102BA000C2F8383128498B6B23F480738B6301237F
:102BB000C2F83C311A4A5360FFF77EBB0022164B25
:102BC000C3F83C210122164B5A60FFF775BB124B2C
:102BD000D3F840E10EF10103104A1268A2F1020A93
:102BE00053453FF420AC01220B4BC3F8AC250EF14A
:102BF00002039A453FF468AC0122074BC3F8AC25A9
:102C00000EF103039A453FF4A3AC0122024BC3F833
:102C1000AC25E4E4704700BF880440200000402059
:102C200008004020CC054020040040204C084020F3
:102C300080044020C0674220F4674220040E4020F8
:102C4000DC674220DC664220000E0E40A54A9368F5
:102C5000013B9360002B40F02F822DE9F04F93B0A1
:102C6000A14AD2F8C825052A00F2FE81DFE812F059
:102C7000060010006C00AB01DF01F20101229A4B4B
:102C8000C3F8C8250622974B9A6013B0BDE8F08FB1
:102C90000121964A1160944A0026C2F8CC65C2F818
:102CA000D015934908684010C2F8D40591490968C5
:102CB0004910C2F8DC15C2F8D805C2F8E015C2F810
:102CC000E405C2F8E815C2F8EC658B4AA2F1FE05EE
:102CD00018467F21844F4FF0010E08E00021824A00
:102CE000C2F8EC15854A18E00139AA420CD032F935
:102CF000024D032CF8DD07EB8004C4F8F015013019
:102D00000228EBD07646EFE7002EEBD0764AC2F8E9
:102D1000EC05E7E701337F2B05D032F9021F0329C9
:102D2000F8DD704AD360704B0222C3F8C825012138
:102D30006C4A91600022C3F8F825C3F8FC25C3F85B
:102D40000026C3F80426A0E70022674BC3F8CC2571
:102D5000674B1B6818460F93934240F38D81624B7B
:102D6000D3F8D0E5D3F8F045D3F8F465D3F8D825F7
:102D70000B92D3F8E0250D92D3F8F8B5D3F8FCA563
:102D8000D3F80096D3F80486564AD568D3F8E425DC
:102D90000492D3F8E8350593594901EB8E01844636
:102DA00000230A930993089307930E930C930693B9
:102DB0000393CDF808E00127019611E09B440AF146
:102DC000010AF14408F1010801260A9609970897BB
:102DD0000797AA4214D0013301F5F071634516D06C
:102DE00018460A6802F07F02A242E7D0019EB24272
:102DF000EFD1029E0D960B9301260E960C97E8E7F5
:102E0000029A05920490012206920397E3E7019E3D
:102E1000354A0F99C2F8CC15039A002A55D1069A63
:102E20001AB1314A0599C2F8E8150C9A1AB12E4A1E
:102E30000B99C2F8D8150E9A1AB12B4A0D99C2F8FF
:102E4000E015079A12B1284AC2F8F8B5089A12B1EB
:102E5000254AC2F8FCA5099A12B1234AC2F8009685
:102E60000A9A12B1204AC2F804860EF1010C1E4AD9
:102E7000C2F8D0C51F4A1768BC452BD01A4AD2F8F1
:102E8000D8150C91D2F8E0150E91D2F8F8B5D2F819
:102E9000FCA5D2F80096D2F80486D2F8E415059184
:102EA000D2F8E8250692164800EB8C0000210B9121
:102EB0000A910991089110910D9107910491CDF813
:102EC0000CC00122029211972FE0074A0499C2F820
:102ED000E415A4E70322044BC3F8C8250122014BE3
:102EE0009A60D2E6080040208804402080044020F8
:102EF0000000402004004020040D4020020C40202F
:102F0000040E40208B440AF1010AE14408F1010853
:102F100001270B97029F0A9709970897954215D0AA
:102F2000013100F5F070994219D00191026802F068
:102F30007F029442E6D09642F0D1039F0E97019F04
:102F40000C9701271097029F0D97E7E7039A0692C7
:102F5000019A059201220792029A0492E0E7119FDA
:102F6000564B0F9AC3F8CC25049B3BBB079B1BB168
:102F7000524B069AC3F8E8250D9B1BB14F4B0C9A98
:102F8000C3F8D825109B1BB14C4B0E9AC3F8E02513
:102F9000089B13B1494BC3F8F8B5099B13B1474BD4
:102FA000C3F8FCA50A9B13B1444BC3F800960B9BD6
:102FB000002B71D0414BC3F804866DE03F4B059A5E
:102FC000C3F8E425D2E73D4BD3F8F845D3F8FC2508
:102FD00094FBF2F4C3F8D445D3F80006D3F80426E2
:102FE00090FBF2F0C3F8DC05354A05211160516011
:102FF0009460D06003201061324A11605160D3F8B0
:10300000E4159160D3F8E815D16002211161D3F87D
:10301000F0252D490A602D490968521A2C490A6089
:103020000422C3F8C82501222A4B9A602DE62A4BB8
:1030300001211970244A12685A70204AD2F8D40526
:103040009870D2F8DC05D8700523C2F8C835214B3A
:1030500099601AE6194A0023C2F838310123C2F8F0
:10306000C8351C4A936010E60022144BC3F8C825EB
:103070000122184B9A6008E6104AD2F8D0E50EF10A
:103080000103C2F8D035154A1768BB423FF422AF9E
:1030900000220A4BC3F8CC250EF10203074AC2F8FE
:1030A000D035BB420CBF03220222044BC3F8C82513
:1030B0000122084B9A60E8E5704700BF8804402071
:1030C000C0674220F4674220D86742207C04402039
:1030D0000868422008004020DC66422004004020AE
:1030E0008368002B40F0E48010B504464368052B4C
:1030F00000F2D980DFE803F003091F477BA341F208
:10310000707201216B4B984710BD6B4B1B68012BF4
:1031100004D001221146674B984710BD674B684A9F
:103120001268C3F808260022C3F8382101220221C0
:10313000604B984710BD624B1B68604AD2F8082666
:1031400093421BD05D4AC2F808360123C2F83831D9
:103150005C4B1B7813F0010F0AD15B4B1B783BB122
:1031600004225A4B1A70574A137843F00103137024
:103170000122032120464F4B984710BD0122022116
:103180004C4B984710BD4D4BD3F83831002B29D00C
:103190004A4B9B68022B15D0032B1BD0012B09D067
:1031A00000234B4A1360484A137001220421414B0B
:1031B000984710BD474B98470122032120463D4BBD
:1031C000984710BD444B9847012203212046394BB4
:1031D000984710BD414B9847012203212046354BAB
:1031E000984710BD01220421324B984710BD344B43
:1031F0001B68324AD2F8082693421BD02F4AC2F8E5
:1032000008360123C2F838312E4B1B7813F0010F1A
:103210000AD12D4B1B783BB104222C4B1A70294A42
:10322000137843F001031370012205212046214B3E
:10323000984710BD012204211E4B984710BD1F4B1B
:10324000D3F83831002B29D01C4BDB68022B15D06A
:10325000032B1BD0012B09D000231D4A13601A4AEF
:10326000137001220221134B984710BD194B984748
:103270000122052120460F4B984710BD164B984759
:103280000122052120460B4B984710BD134B984750
:10329000012205212046074B984710BD012202213B
:1032A000044B984710BD01220021024B984710BDE6
:1032B000704700BFD91240006C04402088044020B1
:1032C00064044020EC664220DC664220EB6642202B
:1032D000800440204D2C4000C51D40007922400054
:1032E00070B50F4E0F4D761BB61018BF002405D0D9
:1032F000013455F8043B9847A642F9D10A4E0B4DCC
:10330000761B00F0A7F8B61018BF002406D00134D1
:1033100055F8043B9847A642F9D170BD70BD00BF77
:103320006034400060344000683440006034400045
:10333000024B13B1024800F005B8704700000000CE
:1033400051334000002301461A46184600F01EB8CB
:1033500038B50A4C0A4D641BA4100AD004F180430E
:10336000013B05EB8305013C55F804399847002CD7
:10337000F9D1BDE8384000F077B800BF783440009C
:1033800074344000704700BF704700BF2DE9F84318
:103390002C4D0646286898460F469146FFF7F2FFE7
:1033A000294B1C68D4F84831002B3ED05A681F2A9C
:1033B0001CDC02F1010E76B103EB82010124C1F89D
:1033C0008890D3F8880194402043022EC3F88801E6
:1033D000C1F8088123D00232C3F804E0286843F81A
:1033E0002270FFF7D1FF0020BDE8F883174B0BB325
:1033F0004FF4C870AFF300800346D8B1D4F8482129
:103400000260002141600A46C4F848014FF0010EF5
:10341000C0F88811C0F88C11002EDCD0CCE7D3F8AE
:103420008C110C43C3F88C41D5E704F5A673C4F89E
:103430004831BBE72868FFF7A7FF4FF0FF30BDE832
:10344000F88300BF400440205034400000000000DA
:1034500018004020F8B500BFF8BC08BC9E46704775
:103460003133400079014000F8B500BFF8BC08BC1A
:083470009E4670475501400023
:10347800A00000007800000001000000010000002A
:10348800010000007F00000000000000040340204D
:103498006C034020D403402000000000000000001E
:1034A8000000000000000000000000000000000014
:1034B8000000000000000000000000000000000004
:1034C80000000000000000000000000000000000F4
:1034D80000000000000000000000000000000000E4
:1034E80000000000000000000000000000000000D4
:1034F80000000000000000000000000000000000C4
:1035080000000000000000000000000000000000B3
:1035180000000000000000000000000000000000A3
:103528000000000000000000000000000000000093
:1035380001000000000000000E33CDAB34126DE630
:10354800ECDE05000B000000000000000000000099
:103558000000000000000000000000000000000063
:103568000000000000000000000000000000000053
:103578000000000000000000000000000000000043
:103588000000000000000000000000000000000033
:0438B80024B34220D3
:0400000500400000B7
:00000001FF
