:020000040040BA
:1000000020B942208912400085124000851240002C
:10001000851240008512400085124000000000005B
:1000200000000000000000000000000085124000F9
:10003000851240000000000085124000851240003B
:100040008512400085124000851240008512400054
:100050008512400085124000851240008512400044
:10006000851240000000000085124000851240000B
:1000700000000000851240008512400000000000D2
:1000800085124000000000000000000085124000C2
:1000900085124000000000008512400085124000DB
:1000A00085124000851240000000000000000000A2
:1000B00000000000851240008512400085124000BB
:1000C00085124000851240008512400000000000AB
:1000D0000000000000000000000000000000000020
:1000E0008512400000000000000000008512400062
:1000F0008512400000000000000000000000000029
:100100000000000000000000851240008512400041
:100110008512400000000000000000000000000008
:100120008512400085124000851240008512400073
:10013000851240008512400000000000851240003A
:100140008512400085124000000000000000000001
:100150008512400010B5054C237833B9044B13B118
:100160000448AFF300800123237010BD40044020F9
:1001700000000000503340000C4B43B10C480D49C7
:1001800010B5AFF300800C48036823B910BD0A48CE
:10019000036833B97047094B002BF7D0BDE8104016
:1001A0001847064B002BF5D0184700BF0000000091
:1001B0005033400044044020503340000000000011
:1001C0008368002B40F01B8110B54368312B00F28F
:1001D0001181DFE813F032008B000F010F010F01D6
:1001E0000F010F010F010F010F010F010F010F018F
:1001F0000F010F010F010F010F010F010F010F017F
:100200000F010F010F010F010F010F010F010F016E
:100210000F01AB000F010F010F010F010F010F01C3
:100220000F010F010F010F010F010F010F010F014E
:10023000B500C800D100F700030171490B7803F045
:10024000FD0300226F4C22706F4C227043F00103BB
:1002500003F0F70362F382030B706C4BD3F81421A5
:1002600042F01002C3F81421D3F8142142F0200206
:10027000C3F8142103F5B2235A6842F010025A6001
:100280005A6842F020025A601A6F22F010021A6770
:100290005A6F22F010025A671A6F22F020021A6772
:1002A0005A6F22F020025A67594B1A78120402F44E
:1002B000FE02584B5A60196945F65D520A431A61AD
:1002C0001A6942F440321A611A6842F020021A6038
:1002D0001A6842F004021A604F4A136943F480130B
:1002E0001361B42231214D4B984710BD444B1B780C
:1002F00013F0040F0CD113F0080F12D0404A1378FA
:1003000043F00103137001222D21444B984710BD87
:100310003B4A43F00103137001221E213F4B9847D3
:1003200010BD012211463D4B984710BD344B1A7841
:100330006FF382021A7001221146384B984710BDA4
:100340000022374B1A60324B1B781B0403F4FE0368
:10035000304A5360536823F48053536001222E21A6
:100360002E4B984710BD284B1A782A4B5A6301220E
:100370002F212A4B984710BD264B1B6A13F0040F00
:1003800011D0274B1B68274A12789A4210DD264A63
:10039000D15C204A51630133214A136001222F218D
:1003A0001E4B984710BD01222F211C4B984710BDB2
:1003B000184A136843F00203136001223021174BDF
:1003C000984710BD134B1B6A13F0010F4FF0010249
:1003D0000CBF30213121114B984710BD084A1378CA
:1003E00003F0FE036FF3C3031370012211460B4B9E
:1003F000984710BD01220021084B984710BD704757
:10040000980A40209C0A4020940A4020008008401E
:10041000AD0A402000C0014000060E4079104000A7
:100420005C044020AC0A4020B00A40208268002AC8
:1004300040F035832DE9F04F8FB0099041680B29CA
:1004400000F22783DFE811F00C004D005300690033
:1004500079008500A600C800EA0002012801F80220
:10046000974A936B23F000439363A2F5C062D2F8DE
:10047000583143F00F03C2F85831924BD96D92496D
:100480001966924959669249096821F07F411967B6
:10049000904999670021D9665967D967C3F88010D8
:1004A000C3F88410D2F8503143F01003C2F8503131
:1004B000D2F8503123F4C063C2F85031D2F8503131
:1004C00043F00103C2F85031834B1960834B19602C
:1004D00040F6B83201210998814B98470FB0BDE82A
:1004E000F08F7822022109987D4B9847F6E77D49E5
:1004F00084238B647C4B5A6842F008025A604FF4A4
:1005000080620A601A6F42F008021A674FF416728E
:1005100003210998724B9847E0E7694A936B43F0CF
:10052000004393636C4A5368013353604FF49662FF
:10053000042109986A4B9847D0E7674B5B68032B07
:100540004FF00602CCBF052100210998644B984763
:10055000C4E7664B1B7813F0010F15D10122644BE1
:100560001A701E22634B1A706821634B19703C216C
:10057000624B19705D490B7843F008030B7006213C
:100580000998574B9847A9E7012205210998544B30
:100590009847A3E7554B1B7813F0010F16D10122A2
:1005A000534B1A700222534B1A700022524B1A708E
:1005B0003C22524B1A704D4A137843F008031370D3
:1005C0001E2207210998464B984787E701220621FA
:1005D0000998434B984781E7444B1B7813F0010F70
:1005E00016D10122424B1A700322424B1A700E227E
:1005F000414B1A703C22414B1A703C4A137843F02D
:10060000080313701E2208210998354B984765E7A7
:10061000012207210998324B98475FE701222E4BB0
:100620009A60374BDB6B13F4804F04D0344BDB6B99
:1006300013F4001F05D0012208210998284B984780
:100640004CE709210998264B984747E72C4BDB6B71
:1006500013F4804F1AD11A4A936B43F40013936337
:10066000184BDA6D194A5A660122DA6100221A4BD8
:10067000DA60244B03F5807123F8022F8B42FBD103
:1006800001220A210998164B984727E701220921E0
:100690000998134B984721E70A49496A11F0010F5D
:1006A00032D00D4BDA680A4B5B689A424FF0010278
:1006B0000CBF0B210A210998094B98470EE700BF90
:1006C00000140E4000800740640F0E40C00A402016
:1006D000000040200328042260044020003A41200A
:1006E0007910400000060E4000100E40980A40208D
:1006F000AC0A4020940A4020B00A4020AD0A4020B5
:10070000000E0E40FE0B4020C148C1680131C1609F
:10071000C0490020C1F88400BFF34F8FD1F880108A
:10072000C1F34E37C1F3C9084FEA471E4FEA887933
:1007300043F6E07CB74E0EEA0C054846414645EAD2
:100740000004C6F86C42013900F14040B1F1FF3FAE
:10075000F5D1013FAEF1200EB7F1FF3FEBD1BFF372
:100760004F8FBFF36F8FAC49C86DAC48486601200E
:10077000C861A8490020C1F88400BFF34F8FD1F8A9
:100780008010C1F34E37C1F3C9084FEA471E4FEA44
:10079000887943F6E07C9F4E0EEA0C0548464146B8
:1007A00045EA0004C6F86042013900F14040B1F169
:1007B000FF3FF5D1013FAEF1200EB7F1FF3FEBD186
:1007C000BFF34F8FBFF36F8F9549096805910029DB
:1007D0007FF767AF8E49D1F810A0D1F814C0C86870
:1007E0000446089002380B90096801F00101049159
:1007F000601E8C4901448C4F07EB81078B490144F3
:100800008B4E06EB81061546DFF828E20A920B981C
:1008100000F178020C9204F178020D9263E0BAF1D3
:10082000010F07D0BAF1020F0CBF4FEA49024FEA9D
:10083000880271E04FEA88026EE0BBF10C0F40F2D3
:100840006B1328BF4FF4B77390E0A9EB0404C4EB1B
:100850000414A30093FBF1F384E0A4EB0804C4EBBD
:100860000414A30093FBF1F378337BE0A8EB0908B1
:10087000C8EB08184FEA880393FBF1F3F03371E0FB
:100880000B986B4C54F8204004F07F080898684C93
:1008900054F8204004F07F090C98654C54F820006F
:1008A00000F07F0002900D9854F8200000F07F00C7
:1008B00003906AE00A9C049A002A00F09780019A4B
:1008C00042EA414141EA0321C7F8E411396841EAAB
:1008D000C4513960013507F5F07706F5F076059AD1
:1008E000954280F291804D4A32F915201402A1B24E
:1008F000C2F307240C44C4F3C428C4F3451904F01C
:100900001F04BAF1000F8AD14FEA890202EB880274
:1009100002EB44024A449210019294443EF81210B1
:1009200001312EF812104FEA48086400CB46A14569
:10093000B8BFA346C345B8BFC3464946A145A8BFF3
:1009400021464145D4BFABEB0101ABEB08010129C6
:100950007FF773AFC3453FF478AFCB453FF47DAF2E
:10096000A34583D0002BB8BF03F5B473012DA1DDDF
:10097000089C012C36DD022D82D0DDF80C90079802
:100980000390DDF8088006980290D6F8BC4304F086
:100990007F0406941419A4EB0804A4EB0909D6F803
:1009A000C04304F07F04306800F07F08A4EB080423
:1009B00009EB44080398029CA0EB040B08EB4B00E6
:1009C00080EAE07BABEBE07B88EAE879A9EBE879A9
:1009D0000BEB09047F2CA8BF7F24132C04DC0A9C9A
:1009E000079268E70A9C66E7079264E7019A42EA81
:1009F000414141EA0321C6F8C413D6F8E02142EA96
:100A0000C452C6F8E02165E7014BC3F814C048E6BC
:100A10006004402000ED00E000800740C00A402054
:100A20000000402088FFFF3F043A412010FFFF3FB5
:100A3000000E4020000C4020194B1B6813F0010FE2
:100A40001ED0184A936B43F4800393630122164B24
:100A50001A60134B1A6801321A605A691349A1FBD4
:100A60000212D20A9A610F498A6B22F400128A6339
:100A700000225A610122082109980D4B98472DE563
:100A8000084A936B23F4800393630022064B1A6099
:100A9000DFE7012200210998054B98471EE57047C2
:100AA0006004402000140E40003A4120B5814E1BE6
:100AB0007910400008B583684BB94368012B16D004
:100AC000022B1FD023B1012200211C4B984708BDE7
:100AD0001B4A936B23F0010393631A4B0022DA61E4
:100AE0001A6241F270720121144B984708BD154BF0
:100AF0009B68012B4FF001020CBF022111460F4BE6
:100B0000984708BD0F4AD369126A02F007029A4259
:100B10000B498A6BCCBF42F0010222F001028A63CA
:100B20000133072B06D0074AD36101220221034B70
:100B3000984708BD0022034BDA61F6E779104000C0
:100B400000140E40600440202DE9F84F83684BB933
:100B50004368012B5BD0022B78D02BB101220021FE
:100B6000954B9847BDE8F88F944BD3F8902042F00E
:100B70000072C3F890205A6E42F000725A665A69A9
:100B800042F000725A615A6842F000725A605A6824
:100B900042F080625A601A6F22F000721A675A6F30
:100BA00042F000725A671A6F22F080621A675A6F19
:100BB00042F080625A6703F5C06351221A624FF413
:100BC00000625A601A6842F050021A6000237C4AA0
:100BD00013707C4A13707C490A7802F0FA0263F3BE
:100BE000C3020A70794A1370794A936B23F08073B9
:100BF0009363A2F50062D2F8003143F48053C2F847
:100C00000031642201216C4B9847BDE8F88F714B8D
:100C1000D3F89C20704AC3F8A020704AC3F8A420DF
:100C20000122C3F8B0206E49C3F8B8100021C3F800
:100C3000AC10C3F8B410C3F8BC10C3F8C010C3F8AC
:100C4000C41002215C4B9847BDE8F88F5E4B1B78BF
:100C500013F0010F45D013F0020F3DD1614B5B69DA
:100C600013F0020F3DD05A4A936B43F080739363A5
:100C7000544B1978524B1A7891421AD24B1CDBB262
:100C80004D1E554C2544561E761A51FA86F62644BA
:100C900054494F4C15F8012FCA614A6912F0020FEE
:100CA00017D0A26B42F08072A2630133DBB2B5426F
:100CB000F0D10023434A1370414A1370424A11781D
:100CC00063F300011170424A936B23F080739363C6
:100CD00007E03C4A137004E03E4B5B6A13F0020FDE
:100CE0001DD0404B5B6913F0400F51D13D4B5B6908
:100CF00013F0200F4CD1354B1B78334A1778C7F3CC
:100D0000C00CC7F380074FF0000EF046F346354D98
:100D10002F4C01210E46F246DFF8CC900FE02A4B13
:100D20001A786FF300021A70294A936B23F08073CC
:100D30009363BDE8F88F8846B44653468B466A698C
:100D400012F0010F0DD0A26B42F08072A263072B4C
:100D5000F1D8AA6909F803200133DBB28E46374681
:100D6000ECE7BBF1000F10D1B8F1000F04D0164B27
:100D70001A786CF3C3021A70BEF1000F15D0124B33
:100D80001A7867F382021A700FE0104A1370EBE7CB
:100D9000144A136843F48073136000220B4B1A70DB
:100DA000094A137843F00803137001220221024B11
:100DB0009847BDE8F88F00BF7910400000140E403E
:100DC000D7664220046642207C674220CF664220DC
:100DD000000E0E4000800740086642201C1A0E409C
:100DE00011400118001A0E40D06642202DE9F84F3C
:100DF00083683BB943683BB1012B5CD001220021E1
:100E0000814B9847BDE8F88F804BD3F8902042F093
:100E10000102C3F890205A6E42F001025A665A69E4
:100E200042F001025A615A6842F001025A605A685F
:100E300042F002025A601A6F22F001021A675A6FDA
:100E400042F001025A671A6F22F002021A675A6FC3
:100E500042F002025A676E4AA3F52063C3F80C21E0
:100E60006C4B5A6842F400225A6040F245121A62F2
:100E70005968694A0A435A6040221A601A6842F067
:100E800010021A600023654A1370654A13706549A1
:100E90000A7802F0FA0263F3C3020A70624A13701E
:100EA000624A936B23F08073936364220121564B53
:100EB0009847BDE8F88F5B4B1B7813F0010F35D0D6
:100EC000544B5B6913F0020F30D0584A936B43F0D8
:100ED00080739363524B1978504B1E78B14216D2EF
:100EE0004B1CDBB2524A11440136F6B2494C4F4D0D
:100EF00011F8012BE261626912F0020F34D0AA6B83
:100F000042F08072AA630133DBB2B342F0D1002316
:100F1000434A1370414A1370424A117863F3000147
:100F20001170424A936B23F080739363394B5B6972
:100F300013F0400F48D1374B5B6913F0200F43D1BA
:100F4000394B1A78374B1F78C7F3C00CC7F38007AB
:100F50004FF0000EF046F3462E4D344C01210E4664
:100F6000F246DFF8D09006E02D4A1370DEE788469F
:100F7000B44652468B466B6913F0010F0DD0A36B3C
:100F800043F08073A363072AF1D8AB6909F80230F4
:100F90000132D2B28E463746ECE7BBF1000F10D1DA
:100FA000B8F1000F04D01F4B1A786CF3C3021A700B
:100FB000BEF1000F22D01B4B1A7867F382021A7021
:100FC0001CE0194B1A70EBE7124A136843F4807364
:100FD000136002F53C2202F50062136843F004033B
:100FE00013600022104B1A700E4A137843F0080366
:100FF00013700E4A936B23F08073936301221146A2
:10100000014B9847BDE8F88F7910400000100E4062
:101010000D10001000400240C0080080E76642202A
:10102000EC664220E8664220ED664220000E0E404B
:10103000D8664220E06642200022014B1A607047C9
:10104000F06642200A4B1B680C2B0EDC10B4002209
:10105000426001248460074C44F8231001330449A2
:101060000B600360104610BC70470120704700BF42
:10107000F46642208467422041608260704700002D
:10108000014A024B1A607047010000A550180E403B
:10109000F0B55F4AD2F8143143F48053C2F81431EA
:1010A0004FF4C0625B4B1A6003F500734FF0FF32E0
:1010B0001A60594A1A61C3F8A02003F500736FF053
:1010C00001021A601A61C3F8A02003F580636FF073
:1010D00000721A601A61C3F8A020A3F560631A6950
:1010E00042F480321A614D4AC3F80C210132C3F830
:1010F0000C214B4A1A621A46936E13F0010FFBD073
:10110000484A494B1A621A46936E13F4803FFBD04B
:10111000464A454B9A621A46936E13F0020FFBD073
:10112000414A136B23F070031363936E13F0080F9F
:10113000FBD03D4A136B23F4407343F48073136375
:10114000936E13F0080FFBD0374A136B23F00303A1
:1011500043F002031363936E13F0080FFBD0324A7F
:10116000D2F8003143F08063C2F80031304B46F2D0
:10117000A8125A609A601A6822F480321A601A68BB
:1011800042F001021A60BFF34F8FBFF36F8F03F578
:101190004F630021C3F85012BFF34F8FBFF36F8F1F
:1011A0005A6942F400325A61BFF34F8FBFF36F8F19
:1011B000C3F88410BFF34F8FD3F88070C7F34E3558
:1011C000C7F3C9076E014FEA877C43F6E07E1C46F1
:1011D00006EA0E0062463B4642EA0001C4F860128D
:1011E000013B02F14042B3F1FF3FF5D1013D203E0A
:1011F000B5F1FF3FECD1BFF34F8F0E4A536943F473
:1012000080335361BFF34F8FBFF36F8FF0BD00BFCB
:1012100000800840000C0E40C7819FFF0A1000109C
:10122000096437000964370100060E4001241920C3
:1012300010E000E000ED00E07047704708B543683B
:1012400033B1012B0FD0002211460C4B984708BD3B
:101250000B4A936B43F00063936340F6B73201216E
:10126000064B984708BD064A936B23F000639363CF
:1012700040F6B7320021014B984708BD7910400075
:10128000000E0E40FEE7000008B5174B174A9A42C1
:1012900010D0174B144A9A420CD2013B9B1A23F0F0
:1012A000030304331344114951F8040B42F8040BAF
:1012B0009A42F9D10F4B104A9A420AD2013B9B1A2B
:1012C00023F0030304331344002142F8041B934228
:1012D000FBD10A4A0A4B23F07F039360094B9847DE
:1012E000094B9847FEE700BF000040205033400004
:1012F0004004402020B342204004402000ED00E0A4
:1013000000004000E13140000D1340002DE9F84F8E
:10131000484B9847484B9847484E00233360484D08
:1013200048492846484CA047306800EB40004749F0
:1013300005EB8000A047306800EB4000444905EB16
:101340008000A047306800EB4000424905EB800078
:10135000A047306800EB40003F4905EB8000A04704
:10136000306800EB40003D4905EB8000A047306845
:1013700000EB40003A4905EB8000A047306800EBE5
:101380004000384905EB8000A047374E374F384CB6
:10139000384D17E0384D394CA847A36B43F0006334
:1013A000A363F9E70C338B4205D09A68002AF9DD74
:1013B000013A9A60F6E7324B98472F4B98472368DB
:1013C000002B16DC336813F4803FF8D0B84723684D
:1013D000012BDFD0012323602B6801332B60174BD7
:1013E00019680029E7DD164B01EB410103EB810190
:1013F000DBE7124B1B68002B19DDDFF844904FF040
:101400000008DFF880B0DFF834A007E008F1010839
:1014100009F10C09DAF80030434508DDD9F8083045
:10142000002BF3D15BF8283048469847EEE70023BD
:101430002360C7E79110400039104000F466422055
:10144000F86642203D12400045104000490B400024
:10145000C1014000B50A4000ED0D40002D044000E0
:101460007D234000F52F400010E000E039124000DD
:1014700080674220F066422081104000000E0E403E
:101480003B12400084674220B64A1368013B136058
:10149000002B40F02E822DE9F04F87B0B24A12683F
:1014A000082A00F21F82DFE812F0090066001D0220
:1014B000830027011D02C101E0011402AA4B35225D
:1014C0005A604F2098601221D96009221A6147247E
:1014D0005C649864D9641A655924C3F88440C3F8DD
:1014E0008800C3F88C10C3F890202D215961582032
:1014F00098611721D9611A6244245C659865D965A1
:101500001A665B24C3F89440C3F89800C3F89C1093
:10151000C3F8A02027215962612098621B21D9625B
:101520001A6342245C669866D9661A675D24C3F81C
:10153000A440C3F8A800C3F8AC10C3F8B020202121
:1015400059636A209863D9631A6440245C6798677A
:10155000D967C3F880206024C3F8B440C3F8B8004A
:10156000C3F8BC10C3F8C02001221A607D4B1A607A
:1015700007B0BDE8F08F01217C4B19607A4B7C4AA3
:101580001268C3F8C4207F22C3F8C8200022C3F821
:10159000CC204E20C3F8D0003520C3F8D400C3F8C7
:1015A000D820C3F8DC2003221A606E4B1960DFE7F5
:1015B0006D4AD2F8D8300493D2F8DC10059101EBD3
:1015C000830302EB0313D3F808905968084600918F
:1015D000196949440C460191DB6802931E18C2F850
:1015E000D090A14550DA634B1F68D2F8C4E0D2F81E
:1015F000C880D2F8E040D2F8CCB0C0EB001A09EBBA
:10160000CA0A4FEA8A0A002213465B4DDFF86CC112
:101610000121039127E052F80C3003F07F00704560
:1016200023F0FF0328BF434442F80C300444013147
:1016300002F5F0728E420BD0012FECD0535903F01B
:101640007F00704523F0FF0328BF43445351EDE76B
:10165000029B9B440122039B09F101090AF1040A40
:101660000198484506D00099B14201DA5246E3E7B5
:101670000099F1E7B3B912B13B4BC3F8CCB03A4B88
:10168000C3F8D410C3F8D090049B0133364AC2F893
:10169000D830032B0AD00322334B1A600122314B7E
:1016A0001A6065E7304BC3F8E040E4E70023C2F876
:1016B000D830059B0133C2F8DC30042B06D003225E
:1016C000294B1A600122274B1A6051E7134600226A
:1016D000C3F8DC20D3F8E010D3F8CC00B1FBF0F174
:1016E000C3F8C410C3F8E020C3F8CC2004221A6069
:1016F00001221C4B1A603BE71B4BD3F8D8B0D3F840
:10170000DC201446019202EB8B0203EB0211D1F8AC
:1017100008E0D1F8049008690EEB000AC868484454
:1017200003EB82020021C2F8E410C3F8D0E0D645F2
:1017300054DA104B1D680C4BD3F8C860C9EB091C78
:101740000EEBCC0C4FEA8C0C4B468145B8BF0346E0
:101750000093094F04EB8B04034A02EB8404DFF887
:101760001C8030E008004020840440208004402099
:1017700078044020003A4120000E4020043A4120E5
:1017800052F8081001F07F01B14204D2D4F8E410FD
:101790000131C4F8E410013302F5F07298420CD024
:1017A000012DEDD0D15901F07F01B142F3D2D4F82F
:1017B000E4100131C4F8E410EDE70EF1010E0CF174
:1017C000040CF24504D08145F7DA62464B46E7E760
:1017D000484B009AC3F8D420C3F8D0E00BF10103C2
:1017E000444AC2F8D830032B06D00422414B1A6079
:1017F0000122414B1A60BBE60023C2F8D830019B9E
:101800000133C2F8DC30042B06D00422394B1A60B5
:101810000122394B1A60ABE613460022C3F8DC20E4
:1018200006221A600122344B1A60A1E6314AD2F82E
:10183000EC200B2AA8BF04232E4AD2F8FC200A2A47
:10184000C8BF43F002032B4AD2F80C210A2AC8BFB2
:1018500043F00103294A5370022313700722254BDA
:101860001A600622244B1A6082E6224AD2F8E82047
:101870000B2AB4BF1A4604221E49D1F8F8100A29CF
:10188000C8BF42F002021B49D1F808110A29C8BF9B
:1018900042F0010219498A70164AD2F8E4200B2A54
:1018A000A8BF0423134AD2F8F4200A2AC8BF43F081
:1018B0000203104AD2F804210A2AC8BF43F00103E8
:1018C0000E4AD37008220B4B1A6006220A4B1A608C
:1018D0004EE600220A4B1A600123064A1360064AAC
:1018E000136045E60022034B1A600122024B1A6086
:1018F0003EE670478404402008004020D86642201D
:10190000880A40202DE9F84FBB4A1368013B136059
:10191000002B40F0D384B94B1B68072B00F2A38443
:10192000DFE813F008000F005C00AD01A8036704B6
:101930007D0497040123B14A1360AF4A1360BDE8E8
:10194000F88FAE4A1346012143F8041F02F52072B6
:10195000002143F8041F9342FBD1A84A02F52173EA
:1019600002F58C62002143F8041F9342FBD1A44B83
:101970001B68022B1ED0032B26D0012B09D09F4BB6
:101980004FF4A042C3F868244FF47052C3F86C249B
:1019900008E09A4B4FF4B432C3F86824A2F5A85279
:1019A000C3F86C240222954B1A600122924B1A60F4
:1019B000BDE8F88F914B4FF4DE42C3F868244FF432
:1019C000B442C3F86C24EDE78C4B4FF46642C3F885
:1019D00068244FF45142C3F86C24E3E70122874B9B
:1019E000C3F87024874B1E68731E934240F34384F0
:1019F000854B1C68814BD3F804E0D3F86854D3F8C6
:101A00006C74CEEB0E135B01043380481844804A9B
:101A1000134406F1FF380122DFF8FC9119E08446F7
:101A2000016801EA090AAA4505D2BA4503D941F07D
:101A30000041016008E021F00041CCF8001003E013
:101A400021F00041CCF8001001320430043342454B
:101A50000DD0012CE3D09C46196801EA090AAA4579
:101A6000EED2BA45ECD941F000411960ECE7634B86
:101A7000C3F870240EF1010366490968A1F1020A56
:101A800053450CD0C3EB03135B0104335F4903EBF5
:101A9000010C5F490B440120DFF87C9126E0574B95
:101AA00002225A6003221A600122534B1A60BDE8D9
:101AB000F88FE046DCF8001001EA090B5D4506D915
:101AC0005F4504D241F00041CCF8001008E021F05D
:101AD0000041C8F8001003E021F00041C8F80010F0
:101AE00001300CF1040C043382420DD0012CE0D003
:101AF0009846196801EA090B5D45EDD95F45EBD2BF
:101B000041F000411960EBE73C4BC3F870040EF163
:101B10000202924513D0394B3B490F68D3F8685401
:101B2000D3F86C84C2EB02125201111D374C0C44E5
:101B3000374B194406F1FF390123374E23E02F4B71
:101B400002225A6003221A6001222B4B1A60BDE860
:101B5000F88FA446206800EA060BAB4505D2C345C2
:101B600003D940F00040206008E020F00040CCF8AD
:101B7000000003E020F00040CCF800000133043402
:101B800004314B450DD0012FE3D08C46086800EAA4
:101B9000060BAB45EED2C345ECD940F000400860DF
:101BA000ECE71649C1F870340EF103018A4509D0FB
:101BB00002F5F272154C144415490A440120DFF86D
:101BC00058C033E00D4B02225A6003221A600122F2
:101BD000094B1A60BDE8F88F2646216801EA0C0916
:101BE0004D4505D9C84503D241F00041216018E0B8
:101BF00021F00041316014E00C00402098054020A5
:101C0000340A402004004020003A4120043A412098
:101C1000000E40200000402000FF010021F00041A4
:101C2000316001300434043283420DD0012FD3D00F
:101C30001646116801EA0C094D45EFD9C845EDD2A9
:101C400041F000411160ECE7904BC3F870040EF1D5
:101C500004038E4A5360534507D002228B4B1A600F
:101C600001228B4B1A60BDE8F88F134602225A609E
:101C700003221A600122864B1A60BDE8F88F834B5D
:101C80000022C3F874240222C3F87024814B1B681D
:101C9000023B934240F3D28011467F4E7B4C7F4DF6
:101CA0003AE063687E484FEA031CACEB030201EBA9
:101CB000C20250F82270ACEB030E4A1E02EBCE02B9
:101CC00050F822E05A1CC2EB021201EBC20250F89B
:101CD0002220ACEB030C01F1010808EBCC0C50F80E
:101CE0002CC0013BC3EB031301EBC30350F82300EB
:101CF0000023C4F878349F425DDB00226068694BA2
:101D00009847D4F870140131C4F87014614B1B6803
:101D1000023B8B4240F392803368012BC1D0636851
:101D20001801C21A01EBC20255F82270A0EB030E93
:101D30004A1E02EBCE0255F822E05A1CC2EB0212F8
:101D400001EBC20255F82220C01A01F1010C0CEB84
:101D5000C00055F820C0013BC3EB031301EBC303E4
:101D600055F823000023C4F878349F42C5DA07F001
:101D700000470EF0004E774545D002F000429742F2
:101D800045D00CF0004C674547D000F0004087423A
:101D900049D0D4F87834032B4BDD04EB8102D2F820
:101DA00088320133C2F88832D4F874340133C4F86D
:101DB0007434FF22A2E707F000470EF0004E77458B
:101DC00011D002F00042974211D00CF0004C674550
:101DD00013D000F000408742DBD1D4F878340133CF
:101DE000C4F87834D5E70123C4F87834E9E7D4F8A7
:101DF00078340133C4F87834E7E7D4F87834013321
:101E0000C4F87834E5E70123C4F87834B5E7D4F8AA
:101E100078340133C4F87834B3E7D4F87834013334
:101E2000C4F87834B1E7D4F878340133C4F878349E
:101E3000AFE7002BD4BF002246225FE7134A536866
:101E400002EB8301D2F87404886001335360164AB0
:101E50001268033A934211D00C4B0022C3F8742449
:101E60000222C3F870240B4B1B68023B934240F3E1
:101E7000EA801146084E054C084D52E00422034BFF
:101E80001A600122024B1A60BDE8F88F98054020C5
:101E90000C00402004004020003A4120000E402069
:101EA000043A4120E5224000000040206368B34826
:101EB0004FEA031CACEB030201EBC20250F82270A4
:101EC000ACEB030E4A1E02EBCE0250F822E05A1C85
:101ED000C2EB021201EBC20250F82220ACEB030C61
:101EE00001F1010808EBCC0C50F82CC0013BC3EB0E
:101EF000031301EBC30350F823000023C4F8783424
:101F00009F425DDB002260689D4B9847D4F87014B7
:101F10000131C4F870149B4B1B68023B8B4240F3A9
:101F200092803368012BC1D063681801C21A01EB9B
:101F3000C20255F82270A0EB030E4A1E02EBCE023D
:101F400055F822E05A1CC2EB021201EBC20255F80E
:101F50002220C01A01F1010C0CEBC00055F820C082
:101F6000013BC3EB031301EBC30355F8230000232C
:101F7000C4F878349F42C5DA07F000470EF0004EEF
:101F8000774545D002F00042974245D00CF0004C16
:101F9000674547D000F00040874249D0D4F87834F4
:101FA000032B4BDD04EB8102D2F888320133C2F8F7
:101FB0008832D4F874340133C4F87434FF22A2E7B1
:101FC00007F000470EF0004E774511D002F00042B6
:101FD000974211D00CF0004C674513D000F0004040
:101FE0008742DBD1D4F878340133C4F87834D5E7AC
:101FF0000123C4F87834E9E7D4F878340133C4F81D
:102000007834E7E7D4F878340133C4F87834E5E776
:102010000123C4F87834B5E7D4F878340133C4F830
:102020007834B3E7D4F878340133C4F87834B1E7BE
:10203000D4F878340133C4F87834AFE7002BD4BF38
:10204000002246225FE7504A536802EB8301D2F830
:1020500074048860013353604C4A1268033A934217
:102060000CBF04220322484B1A600122484B1A601D
:10207000BDE8F88F444B0222C3F87C244FF0FF32B6
:10208000C3F88024414B1C68A31E012B1ADD414973
:102090001C46002596462E46022001231F469C46DC
:1020A00002E00133A34208D051F8042F9042F8DA3D
:1020B0009E4610463D466646F3E7D6B915B1324B0B
:1020C000C3F880E4304B0222C3F884244FF0FF327F
:1020D000C3F888242B4B1C68A31E012B43DD2E491B
:1020E0001C46002516462F46022001239E469C468C
:1020F00006E0254BC3F87C04E0E70133A34208D097
:1021000051F8042F9042F8DA1E461046754667468D
:10211000F3E727BB3DB31C4BC3F88864D3F88014A6
:10212000002920DD002E1EDDD3F88424D3F87C3472
:102130009A42B8BF1A460424184B1C60184B1A6008
:102140005A609960DE60174B1B68022B49D0032B45
:102150004BD0012B28D00422114B1A6127E00A4BE7
:10216000C3F88404D6E701220C4B1A600C4B002202
:102170001A605A609A60DA60E5E700BF043A4120CD
:10218000E522400004004020980540200000402047
:102190000C004020A0054020200840208004402062
:1021A000BC674220340A40200122454B1A61454B4E
:1021B00003221A605A604F229A603B22DA600222A0
:1021C0001A6149F2F063404AD358C3F347233F4AA8
:1021D000136005223E4B1A6001223E4B1A60BDE897
:1021E000F88F0222364B1A61E1E70322344B1A6161
:1021F000DDE70322384B1A70354BD3F88424D3F82B
:102200007C349A4208DD344B5A700623304A1360FE
:10221000304A1360BDE8F88F2F4A5370F5E72C4B16
:10222000D3F88034002B0FDD294AD2F88824002A05
:102230000ADD29498B70CA700722254B1A600622D5
:10224000244B1A60BDE8F88F234BFF229A70DA7096
:10225000F2E70022214B1A6001231D4A13601D4A38
:102260001360BDE8F88F0022194B1A600122194B48
:102270001A60BDE8F88F164BD3F804E00EF10103A5
:10228000174A1268A2F1020A53453FF408AC012232
:102290000F4BC3F870240EF102039A453FF44FAC84
:1022A00001220B4BC3F870240EF103039A453FF44F
:1022B00089AC0122064BC3F87024C8E4BDE8F88F4E
:1022C000BC674220F0674220000E4020D8674220C1
:1022D000980540200C004020D8664220880A402003
:1022E0000000402030B403460028B8BFC31C9B1038
:1022F000444200F0030004F0030458BF6042012888
:102300001ED002282AD068B11B4D1801C41A01EB57
:10231000C40455F8243023F07F4303EB026245F8F0
:1023200024200BE0144D1801C41A01EBC40455F825
:10233000243023F0FF031A4445F8242030BC7047B2
:102340000D4D1801C41A01EBC40455F8243023F4D0
:102350007F4303EB022245F82420EFE7064D1801E6
:10236000C41A01EBC40455F8243023F47F0303EBB3
:10237000024245F82420E1E7206842208368002BD0
:1023800040F00D842DE9F04F87B042680C2A00F22E
:102390000184DFE812F00D002A0014015A021C0328
:1023A00031035E03C403FF03FF03D603E003EB0323
:1023B00000239C4A13609C4A13609C4A13609C490A
:1023C0008A6B42F080728A63A1F5C0618A6B22F049
:1023D00080728A63974A136053604FF4E1520A2176
:1023E000954B984707B0BDE8F08F944A1278002AC1
:1023F00078D09349097811F0080F61D18D494D6863
:10240000D1F80880D1F80CA00C6901944C690594AE
:10241000896903914FF0000BCDF810B0CDF808B0EA
:10242000D946CDF800B05F46DFF838C24FF0010E54
:10243000764607E0A2461D46009610E00391CDF8CF
:1024400010E07746D2B1013AD2B21CF802100C0962
:1024500001F00F010135022DECD0A046B146374600
:10246000022C04D0032C05D0012CEBD1E6E705911A
:10247000F346E6E70191CDF808E0E2E7DFB9009B1B
:1024800013B16C4BC3F80CA0B9F1000F02D0694B2B
:10249000C3F80880029B13B1664B019A1A61049B32
:1024A00013B1644B039A9A61BBF1000F10D0614BDA
:1024B000059A5A610CE0614B1A705E4B5D60DEE775
:1024C0005F4B1A786FF3C3021A7000225B4B1A70CD
:1024D0005B4B1A786FF382021A705A4A936B23F09F
:1024E00080739363584B1B7813F0040F62D013F082
:1024F000080F48D1554B1B784E4A1377423B102B9F
:102500003CD8DFE803F02E3B163B3B271B3B3B3B15
:10251000093B3B3B363B200000224D4B1A60494AA9
:10252000936B43F08003936301220221424B98474F
:1025300032E001220221404B98472DE00122022186
:102540003D4B984728E00122414B1A6002213A4B4B
:10255000984721E002213E4B19600122364B9847F3
:102560001AE003223A4B1A6001220221324B9847AB
:1025700012E001220321304B98470DE00122114661
:102580002D4B984708E0304B1A786FF3C3021A704E
:1025900001221146284B98472B4B1A786FF3820281
:1025A0001A7000222B4B1A70264A936B23F080730B
:1025B000936317E7012211461F4B984712E7224AFF
:1025C000127812F0010F40F03B812349FF220A707C
:1025D000184AD2F8009081F80190177F442F50D00C
:1025E000502F41D0482F43D01C4A52F82920C2F323
:1025F000450E194A82F803E0194AD2F800C0BCF12E
:10260000010F40F31581154E06EB89061C4601218A
:102610000D46DFF844800CF1FF3200931346019021
:1026200070E000BF14684220B06742200868422072
:1026300000140E40240A402079104000ED6642202C
:10264000E8664220000E0E407C674220D0664220A1
:1026500070044020CF66422008664220000E4020D1
:1026600000004020E0664220C64A12F829E0C0E798
:10267000C54A52F829E0CEF3082EC44A82FB0E2E3A
:10268000B7E7C14A52F829204FEA126EB1E70A466D
:102690000029B8BFCA1C9210D1F1000B01F0030A47
:1026A0000BF0030B58BFCBF1000ABAF1010F36D083
:1026B000BAF1020F3DD0BAF1000F08D0C2EB0212FE
:1026C00009EBC202AF4850F82220120E06E0C2EB1E
:1026D000021209EBC202AB4810F8222052107245D8
:1026E00039D0002C4EDD08EB050E803C8EF80340FF
:1026F0008EF804200235009C013106F5F0769646EE
:10270000614545D0502FC2D0482F1CD0442F0CBF5C
:1027100096F8E321D6F8E02102F07F02DFE7C2EB72
:10272000021209EBC202974850F82220C2F3072296
:10273000D4E7C2EB021209EBC202924850F8222001
:10274000C2F30742CAE7D6F8E021C2F308228F4855
:1027500080FB0202C3E701348B420BD0402CCBD16B
:1027600008EB05046FF04000E07084F804E00235E7
:10277000009CC1E708EB050EA4F1800A8EF803A0C7
:102780000135B9E708EB050E8EF803200135B3E7F4
:1027900001987F4B9D707F4B0022C3F88420BFF3CC
:1027A0004F8FD3F88030C3F34E37C3F3C90C4FEAD1
:1027B000471E4FEA8C7943F6E078764E0EEA08041D
:1027C0004A46634644EA0201C6F86C12013B02F134
:1027D0004042B3F1FF3FF5D1013FAEF1200EB7F11A
:1027E000FF3FEBD1BFF34F8FBFF36F8F6A4A684B48
:1027F000C2F8A030EB1C23F07F43C2F8B0300223B4
:10280000D361664A137843F003031370644A936BF1
:1028100043F080739363634A136801331360624A21
:102820001268934206D001220421604B9847D9E5F3
:102830000125AEE75B4B01221A6200221A60F2E723
:1028400001221146594B9847CCE5544A127812F0B0
:10285000010F40F0B7804E4AFF21117051490D68B9
:102860005570534A1468002C3BDD5249454E0AE02E
:10287000C2EB021205EBC20216F8222001F8012F6A
:102880000133A3422ED01A46002BB8BFDA1C921097
:10289000D3F1000E03F003070EF0030E58BFCEF184
:1028A0000007012F0BD0022F12D0002FE0D0C2EB77
:1028B000021205EBC20256F82220120EDEE7C2EB2E
:1028C000021205EBC20256F82220C2F30722D5E716
:1028D000C2EB021205EBC20256F82220C2F30742F5
:1028E000CCE71C462A4B9C702A4B0022C3F884205C
:1028F000BFF34F8FD3F88030C3F34E37C3F3C90C07
:102900004FEA471E4FEA8C7943F6E078214E0EEAF3
:1029100008054A46634645EA0201C6F86C12013BC7
:1029200002F14042B3F1FF3FF5D1013FAEF1200E7D
:10293000B7F1FF3FEBD1BFF34F8FBFF36F8F164A55
:10294000134BC2F8A030E31C23F07F43C2F8B03031
:102950000223D361114A137843F003031370104A22
:10296000936B43F0807393630E4A136801331360D3
:102970000D4A126893421FD0012204210B4B984745
:1029800030E500BF20684220000E402056555555C6
:102990000866422000ED00E0008007407C6742208E
:1029A000000E0E40240A4020040040207910400010
:1029B000000040200A664220794B01221A62002260
:1029C0001A60D9E701221146764B98470AE5764B03
:1029D0001B7813F0010F0AD1714B1B6A012B4FF0CA
:1029E00001020CBF052111466E4B9847FAE4012203
:1029F00004216C4B9847F5E46B4B1B7813F0040FE4
:102A000022D013F0080F15D1684B1A78644B1A774F
:102A100001220621634B9847634B1A786FF38202B9
:102A20001A700022624B1A70624A936B23F0807313
:102A30009363D7E45C4B1A786FF3C3021A700122D8
:102A40001146584B9847E7E701220521554B984717
:102A5000C8E4594BFF221A70FE225A700D229A7058
:102A6000564A5168D9701168197191685971D168C5
:102A700099711269DA71524A516819721168597262
:102A800091689972D168D97212691A734D4A1268A5
:102A90005A73434A91689973D268DA734A4B002299
:102AA000C3F88420BFF34F8FD3F88030C3F34E3682
:102AB000C3F3C90E77014FEA8E7843F6E07C424DAE
:102AC00007EA0C044246734644EA0201C5F86C1258
:102AD000013B02F14042B3F1FF3FF5D1013E203FFF
:102AE000B6F1FF3FECD1BFF34F8FBFF36F8F374B82
:102AF000314AC3F8A0201022C3F8B0200222DA61C4
:102B0000294A137843F0030313702A4A936B43F066
:102B10008073936301220721224B984762E4224B82
:102B20001B7813F0010F07D100221D4B1A620122FE
:102B300011461C4B984755E401220721194B984731
:102B400050E4234A936B23F0807393630C220B2190
:102B5000144B984746E41E4A936B43F0807393638B
:102B60004FF416720C210F4B98473BE4194A137827
:102B700003F0F7036FF3820313700022164B1A70F1
:102B80000C4A936B23F08073936306220121054B5B
:102B9000984727E401220021024B984722E470471E
:102BA000240A4020791040007C674220D0664220F1
:102BB000CF664220000E0E4008664220BC674220CD
:102BC000F06742207804402000ED00E000800740DC
:102BD00000140E40E8664220ED664220934A1368D6
:102BE000013B1360002B40F0F2812DE9F04F93B0D0
:102BF0008F4A526A052A00F2C781DFE812F0060008
:102C000011005A008301AD01BD010123894A1360FF
:102C1000874A53620622854B1A6013B0BDE8F08FD5
:102C2000834A002696620121D162834908684010D8
:102C3000106382490968491091635063D16310643D
:102C4000516496647E4AA2F1FE0518467F21784FB2
:102C50004FF0010E07E00021754A9164794A16E0B1
:102C60000139AA420BD032F9024D032CF8DD07EBF3
:102C70008004E16401300228EDD07646F0E7002EB2
:102C8000ECD06B4A9064E9E701337F2B05D032F931
:102C9000021F0329F8DD654A5360654B02225A6220
:102CA0000121624A116000225A659A65DA651A6646
:102CB000B3E700225E4B9A625F4B1B6818460F9386
:102CC000934240F368815A4BD3F82CE0DC6C1E6DC4
:102CD0005A6B0B92DA6B0D92D3F854B0D3F858A01C
:102CE000D3F85C90D3F86080504A55681A6C04920F
:102CF0005B6C0593544901EB8E01844600230A93D3
:102D00000993089307930E930C9306930393CDF8BE
:102D100008E00127019611E09B440AF1010AF14401
:102D200008F1010801260A96099708970797AA4211
:102D300014D0013301F5F071634516D018460A68C6
:102D400002F07F02A242E7D0019EB242EFD1029E82
:102D50000D960B9301260E960C97E8E7029A0592C2
:102D60000490012206920397E3E7019E304A0F99EF
:102D70009162039A002A4ED1069A12B12C4A059903
:102D800051640C9A12B12A4A0B9951630E9A12B1EE
:102D9000274A0D99D163079A12B1254AC2F854B057
:102DA000089A12B1224AC2F858A0099A12B1204AD0
:102DB000C2F85C900A9A12B11D4AC2F860800EF106
:102DC000010C1B4AC2F82CC01C4A1768BC4526D00F
:102DD000174A516B0C91D16B0E91D2F854B0D2F8C6
:102DE00058A0D2F85C90D2F86080116C0591526CBA
:102DF0000692154800EB8C0000210B910A91099175
:102E0000089110910D9107910491CDF80CC0012209
:102E1000029211972DE0064A04991164ACE703224F
:102E2000034B5A620122014B1A60F6E61000402063
:102E3000240A40208004402000004020040040205C
:102E4000000D4020FE0B4020000E40208B440AF174
:102E5000010AE14408F1010801270B97029F0A9734
:102E600009970897954215D0013100F5F070994205
:102E700019D00191026802F07F029442E6D0964296
:102E8000F0D1039F0E97019F0C9701271097029F87
:102E90000D97E7E7039A0692019A0592012207929D
:102EA000029A0492E0E7119F494B0F9A9A62049BA1
:102EB00023BB079B13B1464B069A5A640D9B13B173
:102EC000434B0C9A5A63109B13B1414B0E9ADA6331
:102ED000089B13B13E4BC3F854B0099B13B13C4B54
:102EE000C3F858A00A9B13B1394BC3F85C900B9BF5
:102EF000002B5ED0364BC3F860805AE0344B059A05
:102F00001A64D6E7324B5C6D9A6D94FBF2F41C6345
:102F1000D86D1A6E90FBF2F098632E4A052111606D
:102F200051609460D060032010612B4A11605160A1
:102F3000196C9160596CD16002211161DA6C2749DA
:102F40000A6027490968521A26490A6004225A620F
:102F50000122254B1A6060E6244B012119701F4A9B
:102F600012685A701A4A106B9870906BD8700523CB
:102F700053621D4B196050E6154A00235366012326
:102F80005362194A136048E60022114B5A6201222B
:102F9000154B1A6041E60E4AD2F82CE00EF10103FF
:102FA000D362134A1768BB423FF439AF0022084B83
:102FB0009A620EF10203064AD362BB420CBF03229F
:102FC0000222034B5A620122074B1A6025E6704722
:102FD000240A4020BC674220F0674220D467422088
:102FE000780440200468422010004020D866422027
:102FF000040040208368002B40F0DA8010B50446BE
:103000004368052B00F2CF80DFE803F003091D427F
:10301000759A41F270720121664B984710BD664B5C
:103020001B68012B04D001221146624B984710BD4A
:10303000624B634A12689A6600225A660122022194
:103040005C4B984710BD5E4B1B685C4A926E934286
:1030500019D05A4A9366012353665A4B1B7813F0D2
:10306000010F0AD1584B1B783BB10422574B1A7001
:10307000544A137843F001031370012203212046C0
:103080004C4B984710BD012202214A4B984710BD76
:103090004A4B5B6E002B29D0484B9B68022B15D006
:1030A000032B1BD0012B09D00023494A1360464A49
:1030B0001370012204213F4B984710BD454B9847A0
:1030C0000122032120463B4B984710BD424B9847B5
:1030D000012203212046374B984710BD3F4B9847AC
:1030E000012203212046334B984710BD01220421C1
:1030F000304B984710BD324B1B68304A926E93425A
:1031000019D02E4A9366012353662E4B1B7813F079
:10311000010F0AD12C4B1B783BB104222B4B1A70A8
:10312000284A137843F00103137001220521204639
:10313000204B984710BD012204211E4B984710BD1B
:103140001E4B5B6E002B29D01C4BDB68022B15D06D
:10315000032B1BD0012B09D000231D4A13601A4AF0
:10316000137001220221134B984710BD194B984749
:103170000122052120460F4B984710BD164B98475A
:103180000122052120460B4B984710BD134B984751
:10319000012205212046074B984710BD012202213C
:1031A000044B984710BD01220021024B984710BDE7
:1031B000704700BF7910400068044020240A402076
:1031C00060044020E8664220D8664220E76642203C
:1031D00080044020DD2B4000891440000519400088
:1031E00070B50F4E0F4D761BB61018BF002405D0DA
:1031F000013455F8043B9847A642F9D10A4E0B4DCD
:10320000761B00F093F8B61018BF002406D00134E6
:1032100055F8043B9847A642F9D170BD70BD00BF78
:1032200038334000383340004033400038334000EA
:10323000024B13B1024800F005B8704700000000CF
:1032400051324000002301461A46184600F01AB8D1
:1032500038B50A4C0A4D641BA4100AD004F180430F
:10326000013B05EB8305013C55F804399847002CD8
:10327000F9D1BDE8384000F063B800BF50334000DA
:103280004C3340002DE9F047254C2568D5F84841DE
:103290000646884692469946C4B360681F2817DCE4
:1032A000431C76B104EB80050122C5F888A0D4F850
:1032B000881182401143022EC4F88811C5F8089184
:1032C0001ED00230636044F820800020BDE8F08703
:1032D000144B03B34FF4C870AFF300800446D0B171
:1032E000D5F84831002780E88800C5F848413846BD
:1032F0000123C4F88871C4F88C71002EE1D0D1E7A5
:10330000D4F88C110A43C4F88C21DAE705F5A674C9
:10331000C5F84841C1E74FF0FF30BDE8F08700BF76
:10332000283340000000000018004020F8B500BF1E
:10333000F8BC08BC9E46704731324000790140001D
:10334000F8B500BFF8BC08BC9E4670475501400068
:10335000A000000078000000010000000100000053
:10336000010000007F000000000000000403402076
:103370006C034020D4034020000000000000000047
:10338000000000000000000000000000000000003D
:10339000000000000000000000000000000000002D
:1033A000000000000000000000000000000000001D
:1033B000000000000000000000000000000000000D
:1033C00000000000000000000000000000000000FD
:1033D00000000000000000000000000000000000ED
:1033E00000000000000000000000000000000000DD
:1033F00000000000000000000000000000000000CD
:1034000000000000000000000000000000000000BC
:1034100001000000000000000E33CDAB34126DE659
:10342000ECDE05000B0000000000000000000000C2
:10343000000000000000000000000000000000008C
:10344000000000000000000000000000000000007C
:10345000000000000000000000000000000000006C
:10346000000000000000000000000000000000005C
:0400000500400000B7
:00000001FF
